8=FIX.4.2|9=64|35=A|34=1|49=oms3|52=20221117-07:28:56.000|56=test3|98=0|108=20|10=110|8=FIX.4.2|9=64|35=A|34=2|49=oms3|52=20221117-07:29:06.000|56=test3|98=0|108=20|10=107|8=FIX.4.2|9=114|35=D|34=3|49=oms3|52=20221117-07:30:15.000|56=test3|11=c1|21=1|38=500|40=1|54=1|55=LNUX|59=0|60=20221117-07:29:25|10=067|8=FIX.4.2|9=64|35=A|34=4|49=oms3|52=20221117-07:31:58.000|56=test3|98=0|108=20|10=109|8=FIX.4.2|9=64|35=A|34=5|49=oms3|52=20221117-07:32:08.000|56=test3|98=0|108=20|10=106|8=FIX.4.2|9=105|35=F|34=6|49=oms3|52=20221117-07:32:57.000|56=test3|11=c2|38=500|41=c1|54=2|55=LNUX|60=20221117-07:32:09|10=004|8=FIX.4.2|9=64|35=A|34=7|49=oms3|52=20221117-08:19:50.000|56=test3|98=0|108=20|10=111|8=FIX.4.2|9=52|35=0|34=8|49=oms3|52=20221117-08:20:10.000|56=test3|10=056|8=FIX.4.2|9=61|35=1|34=9|49=oms3|52=20221117-08:20:14.000|56=test3|112=TEST|10=080|8=FIX.4.2|9=65|35=A|34=10|49=oms3|52=20221117-08:20:38.000|56=test3|98=0|108=20|10=152|8=FIX.4.2|9=115|35=D|34=11|49=oms3|52=20221117-08:22:44.000|56=test3|11=c1|21=1|38=500|40=1|54=1|55=LNUX|59=0|60=20221117-08:22:13|10=110|8=FIX.4.2|9=65|35=A|34=12|49=oms3|52=20221117-08:22:50.000|56=test3|98=0|108=20|10=150|8=FIX.4.2|9=65|35=A|34=13|49=oms3|52=20221117-08:23:00.000|56=test3|98=0|108=20|10=147|8=FIX.4.2|9=106|35=F|34=14|49=oms3|52=20221117-08:23:41.000|56=test3|11=c3|38=500|41=c4|54=1|55=LNUX|60=20221117-08:22:51|10=046|8=FIX.4.2|9=109|35=F|34=15|49=oms3|52=20221117-08:24:41.000|56=test3|11=c2|38=500|41=c1|54=1|55=ssymbol|60=20221117-08:23:58|10=249|