8=FIXT.1.1|9=76|35=A|34=1|49=client1|52=20221125-09:44:43.000|56=gateway|98=0|108=30|1137=9|10=045|8=FIXT.1.1|9=107|35=3|34=2|49=client1|52=20221125-09:47:40.000|56=gateway|45=2|58=SendingTime accuracy problem|372=0|373=10|10=140|8=FIXT.1.1|9=57|35=5|34=3|49=client1|52=20221125-09:47:40.000|56=gateway|10=198|8=FIXT.1.1|9=76|35=A|34=4|49=client1|52=20221125-09:47:40.000|56=gateway|98=0|108=30|1137=9|10=048|8=FIXT.1.1|9=76|35=A|34=5|49=client1|52=20221125-09:48:40.000|56=gateway|98=0|108=30|1137=9|10=050|8=FIXT.1.1|9=66|35=2|34=6|49=client1|52=20221125-09:48:40.000|56=gateway|7=3|16=0|10=068|8=FIXT.1.1|9=66|35=1|34=7|49=client1|52=20221125-09:49:50.000|56=gateway|112=TEST|10=219|8=FIXT.1.1|9=66|35=0|34=8|49=client1|52=20221125-09:49:50.000|56=gateway|112=TEST|10=219|8=FIXT.1.1|9=57|35=0|34=9|49=client1|52=20221125-09:50:20.000|56=gateway|10=191|8=FIXT.1.1|9=114|35=D|34=10|49=client1|52=20221125-09:50:31.000|56=gateway|1128=7|11=c1|38=100|40=1|54=1|59=0|60=20221125-09:50:04|10=099|8=FIXT.1.1|9=67|35=1|34=11|49=client1|52=20221125-09:50:58.000|56=gateway|112=TEST|10=007|8=FIXT.1.1|9=67|35=0|34=12|49=client1|52=20221125-09:50:58.000|56=gateway|112=TEST|10=007|8=FIXT.1.1|9=58|35=0|34=13|49=client1|52=20221125-09:51:28.000|56=gateway|10=244|8=FIXT.1.1|9=67|35=1|34=14|49=client1|52=20221125-09:51:34.000|56=gateway|112=TEST|10=005|8=FIXT.1.1|9=77|35=A|34=15|49=client1|52=20221125-09:52:10.000|56=gateway|98=0|108=30|1137=9|10=092|8=FIXT.1.1|9=77|35=A|34=16|49=client1|52=20221125-09:52:50.000|56=gateway|98=0|108=30|1137=9|10=097|8=FIXT.1.1|9=77|35=A|34=17|49=client1|52=20221125-09:53:00.000|56=gateway|98=0|108=30|1137=9|10=094|8=FIXT.1.1|9=77|35=A|34=18|49=client1|52=20221125-09:53:50.000|56=gateway|98=0|108=30|1137=9|10=100|8=FIXT.1.1|9=77|35=A|34=19|49=client1|52=20221125-09:54:00.000|56=gateway|98=0|108=30|1137=9|10=097|8=FIXT.1.1|9=77|35=A|34=20|49=client1|52=20221125-09:54:50.000|56=gateway|98=0|108=30|1137=9|10=094|8=FIXT.1.1|9=77|35=A|34=21|49=client1|52=20221125-09:55:00.000|56=gateway|98=0|108=30|1137=9|10=091|8=FIXT.1.1|9=77|35=A|34=22|49=client1|52=20221125-09:55:50.000|56=gateway|98=0|108=30|1137=9|10=097|8=FIXT.1.1|9=77|35=A|34=23|49=client1|52=20221125-09:57:51.000|56=gateway|98=0|108=30|1137=9|10=101|8=FIXT.1.1|9=68|35=2|34=24|49=client1|52=20221125-09:57:51.000|56=gateway|7=12|16=0|10=168|8=FIXT.1.1|9=119|35=3|34=25|49=client1|52=20221125-09:57:51.000|56=gateway|45=12|58=Tag specified without a value|371=20005|372=j|373=4|10=220|8=FIXT.1.1|9=58|35=0|34=26|49=client1|52=20221125-09:58:21.000|56=gateway|10=248|8=FIXT.1.1|9=58|35=0|34=27|49=client1|52=20221125-09:58:51.000|56=gateway|10=252|8=FIXT.1.1|9=114|35=D|34=28|49=client1|52=20221125-09:59:07.000|56=gateway|1128=7|11=c1|38=100|40=1|54=1|59=0|60=20221125-09:58:47|10=135|8=FIXT.1.1|9=67|35=1|34=29|49=client1|52=20221125-09:59:27.000|56=gateway|112=TEST|10=021|8=FIXT.1.1|9=77|35=A|34=30|49=client1|52=20221125-10:00:03.000|56=gateway|98=0|108=30|1137=9|10=076|8=FIXT.1.1|9=77|35=A|34=31|49=client1|52=20221125-10:00:51.000|56=gateway|98=0|108=30|1137=9|10=080|8=FIXT.1.1|9=77|35=A|34=32|49=client1|52=20221125-10:01:01.000|56=gateway|98=0|108=30|1137=9|10=077|8=FIXT.1.1|9=77|35=A|34=33|49=client1|52=20221125-10:01:51.000|56=gateway|98=0|108=30|1137=9|10=083|8=FIXT.1.1|9=77|35=A|34=34|49=client1|52=20221125-10:02:02.000|56=gateway|98=0|108=30|1137=9|10=081|8=FIXT.1.1|9=77|35=A|34=35|49=client1|52=20221125-10:02:51.000|56=gateway|98=0|108=30|1137=9|10=086|8=FIXT.1.1|9=77|35=A|34=36|49=client1|52=20221125-10:03:01.000|56=gateway|98=0|108=30|1137=9|10=083|8=FIXT.1.1|9=77|35=A|34=37|49=client1|52=20221125-10:03:51.000|56=gateway|98=0|108=30|1137=9|10=089|8=FIXT.1.1|9=77|35=A|34=38|49=client1|52=20221125-10:04:01.000|56=gateway|98=0|108=30|1137=9|10=086|8=FIXT.1.1|9=114|35=D|34=39|49=client1|52=20221125-10:04:41.000|56=gateway|1128=7|11=c1|38=100|40=1|54=1|59=0|60=20221125-10:04:25|10=096|8=FIXT.1.1|9=77|35=A|34=40|49=client1|52=20221125-10:04:51.000|56=gateway|98=0|108=30|1137=9|10=084|8=FIXT.1.1|9=68|35=2|34=41|49=client1|52=20221125-10:04:51.000|56=gateway|7=19|16=0|10=158|8=FIXT.1.1|9=119|35=3|34=42|49=client1|52=20221125-10:04:51.000|56=gateway|45=19|58=Tag specified without a value|371=20005|372=j|373=4|10=210|8=FIXT.1.1|9=114|35=D|34=43|49=client1|52=20221125-10:05:20.000|56=gateway|1128=7|11=c2|38=200|40=1|54=1|59=0|60=20221125-10:04:59|10=098|8=FIXT.1.1|9=67|35=1|34=44|49=client1|52=20221125-10:05:27.000|56=gateway|112=TEST|10=001|8=FIXT.1.1|9=77|35=A|34=45|49=client1|52=20221125-10:06:03.000|56=gateway|98=0|108=30|1137=9|10=088|8=FIXT.1.1|9=77|35=A|34=46|49=client1|52=20221125-10:06:51.000|56=gateway|98=0|108=30|1137=9|10=092|8=FIXT.1.1|9=77|35=A|34=47|49=client1|52=20221125-10:07:01.000|56=gateway|98=0|108=30|1137=9|10=089|8=FIXT.1.1|9=77|35=A|34=48|49=client1|52=20221125-10:07:51.000|56=gateway|98=0|108=30|1137=9|10=095|8=FIXT.1.1|9=77|35=A|34=49|49=client1|52=20221125-10:08:01.000|56=gateway|98=0|108=30|1137=9|10=092|8=FIXT.1.1|9=77|35=A|34=50|49=client1|52=20221125-10:08:51.000|56=gateway|98=0|108=30|1137=9|10=089|8=FIXT.1.1|9=68|35=2|34=51|49=client1|52=20221125-10:08:51.000|56=gateway|7=24|16=0|10=159|8=FIXT.1.1|9=119|35=3|34=52|49=client1|52=20221125-10:08:51.000|56=gateway|45=25|58=Tag specified without a value|371=20005|372=j|373=4|10=212|8=FIXT.1.1|9=109|35=3|34=53|49=client1|52=20221125-10:40:10.000|56=gateway|45=32|58=SendingTime accuracy problem|372=0|373=10|10=229|8=FIXT.1.1|9=58|35=5|34=54|49=client1|52=20221125-10:40:10.000|56=gateway|10=235|8=FIXT.1.1|9=77|35=A|34=55|49=client1|52=20221125-10:40:10.000|56=gateway|98=0|108=30|1137=9|10=085|8=FIXT.1.1|9=114|35=D|34=56|49=client1|52=20221125-10:41:02.000|56=gateway|1128=7|11=c1|38=100|40=1|54=1|59=0|60=20221125-10:40:42|10=092|8=FIXT.1.1|9=77|35=A|34=57|49=client1|52=20221125-10:41:10.000|56=gateway|98=0|108=30|1137=9|10=088|8=FIXT.1.1|9=68|35=2|34=58|49=client1|52=20221125-10:41:10.000|56=gateway|7=33|16=0|10=158|8=FIXT.1.1|9=58|35=0|34=59|49=client1|52=20221125-10:41:40.000|56=gateway|10=239|8=FIXT.1.1|9=114|35=D|34=60|49=client1|52=20221125-10:42:05.000|56=gateway|1128=7|11=c4|38=400|40=1|54=1|59=0|60=20221125-10:41:42|10=098|8=FIXT.1.1|9=67|35=1|34=61|49=client1|52=20221125-10:42:16.000|56=gateway|112=TEST|10=255|8=FIXT.1.1|9=58|35=0|34=62|49=client1|52=20221125-10:42:50.000|56=gateway|10=235|8=FIXT.1.1|9=119|35=3|34=63|49=client1|52=20221125-10:42:50.000|56=gateway|45=38|58=Tag specified without a value|371=20005|372=j|373=4|10=215|8=FIXT.1.1|9=58|35=0|34=64|49=client1|52=20221125-10:43:20.000|56=gateway|10=235|8=FIXT.1.1|9=58|35=0|34=65|49=client1|52=20221125-10:43:50.000|56=gateway|10=239|8=FIXT.1.1|9=58|35=0|34=66|49=client1|52=20221125-10:44:20.000|56=gateway|10=238|8=FIXT.1.1|9=77|35=A|34=67|49=client1|52=20221125-10:44:58.000|56=gateway|98=0|108=30|1137=9|10=104|8=FIXT.1.1|9=58|35=0|34=68|49=client1|52=20221125-10:45:28.000|56=gateway|10=249|8=FIXT.1.1|9=67|35=1|34=69|49=client1|52=20221125-10:46:25.000|56=gateway|112=TEST|10=011|8=FIXT.1.1|9=67|35=0|34=70|49=client1|52=20221125-10:46:25.000|56=gateway|112=TEST|10=002|8=FIXT.1.1|9=58|35=0|34=71|49=client1|52=20221125-10:47:06.000|56=gateway|10=241|8=FIXT.1.1|9=67|35=0|34=72|49=client1|52=20221125-10:47:06.000|56=gateway|112=TEST|10=004|8=FIXT.1.1|9=77|35=A|34=73|49=client1|52=20221125-10:47:28.000|56=gateway|98=0|108=30|1137=9|10=101|8=FIXT.1.1|9=67|35=1|34=74|49=client1|52=20221125-10:48:31.000|56=gateway|112=TEST|10=006|8=FIXT.1.1|9=67|35=0|34=75|49=client1|52=20221125-10:48:31.000|56=gateway|112=TEST|10=006|8=FIXT.1.1|9=77|35=A|34=76|49=client1|52=20221125-10:51:10.000|56=gateway|98=0|108=30|1137=9|10=090|8=FIXT.1.1|9=77|35=A|34=77|49=client1|52=20221125-10:54:07.000|56=gateway|98=0|108=30|1137=9|10=100|8=FIXT.1.1|9=77|35=A|34=78|49=client1|52=20221125-10:56:29.000|56=gateway|98=0|108=30|1137=9|10=107|8=FIXT.1.1|9=68|35=2|34=79|49=client1|52=20221125-10:56:29.000|56=gateway|7=55|16=0|10=181|8=FIXT.1.1|9=77|35=A|34=80|49=client1|52=20221125-11:00:04.000|56=gateway|98=0|108=30|1137=9|10=083|8=FIXT.1.1|9=68|35=2|34=81|49=client1|52=20221125-11:00:04.000|56=gateway|7=59|16=0|10=161|8=FIXT.1.1|9=77|35=A|34=82|49=client1|52=20221125-11:02:21.000|56=gateway|98=0|108=30|1137=9|10=086|8=FIXT.1.1|9=68|35=2|34=83|49=client1|52=20221125-11:02:21.000|56=gateway|7=62|16=0|10=158|8=FIXT.1.1|9=77|35=A|34=84|49=client1|52=20221125-11:04:02.000|56=gateway|98=0|108=30|1137=9|10=089|8=FIXT.1.1|9=77|35=A|34=85|49=client1|52=20221125-11:07:20.000|56=gateway|98=0|108=30|1137=9|10=093|8=FIXT.1.1|9=68|35=2|34=86|49=client1|52=20221125-11:07:20.000|56=gateway|7=66|16=0|10=169|8=FIXT.1.1|9=58|35=0|34=87|49=client1|52=20221125-11:07:50.000|56=gateway|10=244|8=FIXT.1.1|9=58|35=0|34=88|49=client1|52=20221125-11:08:20.000|56=gateway|10=243|8=FIXT.1.1|9=58|35=0|34=89|49=client1|52=20221125-11:08:50.000|56=gateway|10=247|8=FIXT.1.1|9=58|35=0|34=90|49=client1|52=20221125-11:09:20.000|56=gateway|10=237|8=FIXT.1.1|9=58|35=0|34=91|49=client1|52=20221125-11:09:50.000|56=gateway|10=241|8=FIXT.1.1|9=58|35=0|34=92|49=client1|52=20221125-11:10:20.000|56=gateway|10=231|8=FIXT.1.1|9=58|35=0|34=93|49=client1|52=20221125-11:10:50.000|56=gateway|10=235|8=FIXT.1.1|9=58|35=0|34=94|49=client1|52=20221125-11:11:20.000|56=gateway|10=234|8=FIXT.1.1|9=58|35=0|34=95|49=client1|52=20221125-11:11:50.000|56=gateway|10=238|8=FIXT.1.1|9=58|35=0|34=96|49=client1|52=20221125-11:12:20.000|56=gateway|10=237|8=FIXT.1.1|9=77|35=A|34=97|49=client1|52=20221125-11:12:53.000|56=gateway|98=0|108=30|1137=9|10=098|8=FIXT.1.1|9=58|35=0|34=98|49=client1|52=20221125-11:13:23.000|56=gateway|10=243|8=FIXT.1.1|9=123|35=D|34=99|49=client1|52=20221125-11:13:43.000|56=gateway|1128=7|11=c1|38=100|40=1|54=1|59=0|60=20221125-11:13:27|20005=19|10=011|8=FIXT.1.1|9=68|35=1|34=100|49=client1|52=20221125-11:13:59.000|56=gateway|112=TEST|10=048|8=FIXT.1.1|9=78|35=A|34=101|49=client1|52=20221125-11:14:35.000|56=gateway|98=0|108=30|1137=9|10=135|8=FIXT.1.1|9=78|35=A|34=102|49=client1|52=20221125-11:14:53.000|56=gateway|98=0|108=30|1137=9|10=136|8=FIXT.1.1|9=78|35=A|34=103|49=client1|52=20221125-11:15:03.000|56=gateway|98=0|108=30|1137=9|10=133|8=FIXT.1.1|9=78|35=A|34=104|49=client1|52=20221125-11:15:53.000|56=gateway|98=0|108=30|1137=9|10=139|8=FIXT.1.1|9=78|35=A|34=105|49=client1|52=20221125-11:16:03.000|56=gateway|98=0|108=30|1137=9|10=136|8=FIXT.1.1|9=78|35=A|34=106|49=client1|52=20221125-11:16:53.000|56=gateway|98=0|108=30|1137=9|10=142|8=FIXT.1.1|9=78|35=A|34=107|49=client1|52=20221125-11:17:53.000|56=gateway|98=0|108=30|1137=9|10=144|8=FIXT.1.1|9=69|35=2|34=108|49=client1|52=20221125-11:17:53.000|56=gateway|7=81|16=0|10=217|8=FIXT.1.1|9=59|35=0|34=109|49=client1|52=20221125-11:18:23.000|56=gateway|10=034|8=FIXT.1.1|9=59|35=0|34=110|49=client1|52=20221125-11:18:53.000|56=gateway|10=029|8=FIXT.1.1|9=59|35=0|34=111|49=client1|52=20221125-11:19:23.000|56=gateway|10=028|8=FIXT.1.1|9=59|35=0|34=112|49=client1|52=20221125-11:19:53.000|56=gateway|10=032|8=FIXT.1.1|9=59|35=0|34=113|49=client1|52=20221125-11:20:23.000|56=gateway|10=022|8=FIXT.1.1|9=59|35=0|34=114|49=client1|52=20221125-11:20:53.000|56=gateway|10=026|8=FIXT.1.1|9=59|35=0|34=115|49=client1|52=20221125-11:21:23.000|56=gateway|10=025|8=FIXT.1.1|9=59|35=0|34=116|49=client1|52=20221125-11:21:53.000|56=gateway|10=029|8=FIXT.1.1|9=59|35=0|34=117|49=client1|52=20221125-11:22:23.000|56=gateway|10=028|8=FIXT.1.1|9=59|35=0|34=118|49=client1|52=20221125-11:22:53.000|56=gateway|10=032|8=FIXT.1.1|9=59|35=0|34=119|49=client1|52=20221125-11:23:23.000|56=gateway|10=031|8=FIXT.1.1|9=59|35=0|34=120|49=client1|52=20221125-11:23:53.000|56=gateway|10=026|8=FIXT.1.1|9=59|35=0|34=121|49=client1|52=20221125-11:24:23.000|56=gateway|10=025|8=FIXT.1.1|9=59|35=0|34=122|49=client1|52=20221125-11:24:53.000|56=gateway|10=029|8=FIXT.1.1|9=59|35=0|34=123|49=client1|52=20221125-11:25:23.000|56=gateway|10=028|8=FIXT.1.1|9=59|35=0|34=124|49=client1|52=20221125-11:25:53.000|56=gateway|10=032|8=FIXT.1.1|9=59|35=0|34=125|49=client1|52=20221125-11:26:23.000|56=gateway|10=031|8=FIXT.1.1|9=59|35=0|34=126|49=client1|52=20221125-11:26:53.000|56=gateway|10=035|8=FIXT.1.1|9=59|35=0|34=127|49=client1|52=20221125-11:27:23.000|56=gateway|10=034|8=FIXT.1.1|9=59|35=0|34=128|49=client1|52=20221125-11:27:53.000|56=gateway|10=038|8=FIXT.1.1|9=59|35=0|34=129|49=client1|52=20221125-11:28:23.000|56=gateway|10=037|8=FIXT.1.1|9=59|35=0|34=130|49=client1|52=20221125-11:28:53.000|56=gateway|10=032|8=FIXT.1.1|9=59|35=0|34=131|49=client1|52=20221125-11:29:23.000|56=gateway|10=031|8=FIXT.1.1|9=59|35=0|34=132|49=client1|52=20221125-11:29:53.000|56=gateway|10=035|8=FIXT.1.1|9=59|35=0|34=133|49=client1|52=20221125-11:30:23.000|56=gateway|10=025|8=FIXT.1.1|9=59|35=0|34=134|49=client1|52=20221125-11:30:53.000|56=gateway|10=029|8=FIXT.1.1|9=59|35=0|34=135|49=client1|52=20221125-11:31:23.000|56=gateway|10=028|8=FIXT.1.1|9=59|35=0|34=136|49=client1|52=20221125-11:31:53.000|56=gateway|10=032|8=FIXT.1.1|9=59|35=0|34=137|49=client1|52=20221125-11:32:23.000|56=gateway|10=031|8=FIXT.1.1|9=59|35=0|34=138|49=client1|52=20221125-11:32:53.000|56=gateway|10=035|8=FIXT.1.1|9=59|35=0|34=139|49=client1|52=20221125-11:33:23.000|56=gateway|10=034|8=FIXT.1.1|9=59|35=0|34=140|49=client1|52=20221125-11:33:53.000|56=gateway|10=029|8=FIXT.1.1|9=59|35=0|34=141|49=client1|52=20221125-11:34:23.000|56=gateway|10=028|8=FIXT.1.1|9=59|35=0|34=142|49=client1|52=20221125-11:34:53.000|56=gateway|10=032|8=FIXT.1.1|9=59|35=0|34=143|49=client1|52=20221125-11:35:23.000|56=gateway|10=031|8=FIXT.1.1|9=59|35=0|34=144|49=client1|52=20221125-11:35:53.000|56=gateway|10=035|8=FIXT.1.1|9=59|35=0|34=145|49=client1|52=20221125-11:36:23.000|56=gateway|10=034|8=FIXT.1.1|9=59|35=0|34=146|49=client1|52=20221125-11:36:53.000|56=gateway|10=038|8=FIXT.1.1|9=59|35=0|34=147|49=client1|52=20221125-11:37:23.000|56=gateway|10=037|8=FIXT.1.1|9=59|35=0|34=148|49=client1|52=20221125-11:37:53.000|56=gateway|10=041|8=FIXT.1.1|9=59|35=0|34=149|49=client1|52=20221125-11:38:23.000|56=gateway|10=040|8=FIXT.1.1|9=59|35=0|34=150|49=client1|52=20221125-11:38:53.000|56=gateway|10=035|8=FIXT.1.1|9=59|35=0|34=151|49=client1|52=20221125-11:39:23.000|56=gateway|10=034|8=FIXT.1.1|9=59|35=0|34=152|49=client1|52=20221125-11:39:53.000|56=gateway|10=038|8=FIXT.1.1|9=59|35=0|34=153|49=client1|52=20221125-11:40:23.000|56=gateway|10=028|8=FIXT.1.1|9=59|35=0|34=154|49=client1|52=20221125-11:40:53.000|56=gateway|10=032|8=FIXT.1.1|9=59|35=0|34=155|49=client1|52=20221125-11:41:23.000|56=gateway|10=031|8=FIXT.1.1|9=59|35=0|34=156|49=client1|52=20221125-11:41:53.000|56=gateway|10=035|8=FIXT.1.1|9=59|35=0|34=157|49=client1|52=20221125-11:42:23.000|56=gateway|10=034|8=FIXT.1.1|9=59|35=0|34=158|49=client1|52=20221125-11:42:53.000|56=gateway|10=038|8=FIXT.1.1|9=59|35=0|34=159|49=client1|52=20221125-11:43:23.000|56=gateway|10=037|8=FIXT.1.1|9=59|35=0|34=160|49=client1|52=20221125-11:43:53.000|56=gateway|10=032|8=FIXT.1.1|9=59|35=0|34=161|49=client1|52=20221125-11:44:23.000|56=gateway|10=031|8=FIXT.1.1|9=59|35=0|34=162|49=client1|52=20221125-11:44:53.000|56=gateway|10=035|8=FIXT.1.1|9=59|35=0|34=163|49=client1|52=20221125-11:45:23.000|56=gateway|10=034|8=FIXT.1.1|9=59|35=0|34=164|49=client1|52=20221125-11:45:53.000|56=gateway|10=038|8=FIXT.1.1|9=59|35=0|34=165|49=client1|52=20221125-11:46:23.000|56=gateway|10=037|8=FIXT.1.1|9=59|35=0|34=166|49=client1|52=20221125-11:46:53.000|56=gateway|10=041|8=FIXT.1.1|9=59|35=0|34=167|49=client1|52=20221125-11:47:23.000|56=gateway|10=040|8=FIXT.1.1|9=59|35=0|34=168|49=client1|52=20221125-11:47:53.000|56=gateway|10=044|8=FIXT.1.1|9=59|35=0|34=169|49=client1|52=20221125-11:48:23.000|56=gateway|10=043|8=FIXT.1.1|9=59|35=0|34=170|49=client1|52=20221125-11:48:53.000|56=gateway|10=038|8=FIXT.1.1|9=59|35=0|34=171|49=client1|52=20221125-11:49:23.000|56=gateway|10=037|8=FIXT.1.1|9=59|35=0|34=172|49=client1|52=20221125-11:49:53.000|56=gateway|10=041|8=FIXT.1.1|9=59|35=0|34=173|49=client1|52=20221125-11:50:23.000|56=gateway|10=031|8=FIXT.1.1|9=59|35=0|34=174|49=client1|52=20221125-11:50:53.000|56=gateway|10=035|8=FIXT.1.1|9=59|35=0|34=175|49=client1|52=20221125-11:51:23.000|56=gateway|10=034|8=FIXT.1.1|9=59|35=0|34=176|49=client1|52=20221125-11:51:53.000|56=gateway|10=038|8=FIXT.1.1|9=59|35=0|34=177|49=client1|52=20221125-11:52:23.000|56=gateway|10=037|8=FIXT.1.1|9=59|35=0|34=178|49=client1|52=20221125-11:52:53.000|56=gateway|10=041|8=FIXT.1.1|9=59|35=0|34=179|49=client1|52=20221125-11:53:23.000|56=gateway|10=040|8=FIXT.1.1|9=59|35=0|34=180|49=client1|52=20221125-11:53:53.000|56=gateway|10=035|8=FIXT.1.1|9=59|35=0|34=181|49=client1|52=20221125-11:54:23.000|56=gateway|10=034|8=FIXT.1.1|9=59|35=0|34=182|49=client1|52=20221125-11:54:53.000|56=gateway|10=038|8=FIXT.1.1|9=59|35=0|34=183|49=client1|52=20221125-11:55:23.000|56=gateway|10=037|8=FIXT.1.1|9=59|35=0|34=184|49=client1|52=20221125-11:55:53.000|56=gateway|10=041|8=FIXT.1.1|9=59|35=0|34=185|49=client1|52=20221125-11:56:23.000|56=gateway|10=040|8=FIXT.1.1|9=59|35=0|34=186|49=client1|52=20221125-11:56:53.000|56=gateway|10=044|8=FIXT.1.1|9=59|35=0|34=187|49=client1|52=20221125-11:57:23.000|56=gateway|10=043|8=FIXT.1.1|9=59|35=0|34=188|49=client1|52=20221125-11:57:53.000|56=gateway|10=047|8=FIXT.1.1|9=59|35=0|34=189|49=client1|52=20221125-11:58:23.000|56=gateway|10=046|8=FIXT.1.1|9=59|35=0|34=190|49=client1|52=20221125-11:58:53.000|56=gateway|10=041|8=FIXT.1.1|9=59|35=0|34=191|49=client1|52=20221125-11:59:23.000|56=gateway|10=040|8=FIXT.1.1|9=59|35=0|34=192|49=client1|52=20221125-11:59:53.000|56=gateway|10=044|8=FIXT.1.1|9=59|35=0|34=193|49=client1|52=20221125-12:00:23.000|56=gateway|10=029|8=FIXT.1.1|9=59|35=0|34=194|49=client1|52=20221125-12:00:53.000|56=gateway|10=033|8=FIXT.1.1|9=59|35=0|34=195|49=client1|52=20221125-12:01:23.000|56=gateway|10=032|8=FIXT.1.1|9=59|35=0|34=196|49=client1|52=20221125-12:01:53.000|56=gateway|10=036|8=FIXT.1.1|9=59|35=0|34=197|49=client1|52=20221125-12:02:23.000|56=gateway|10=035|8=FIXT.1.1|9=59|35=0|34=198|49=client1|52=20221125-12:02:53.000|56=gateway|10=039|8=FIXT.1.1|9=59|35=0|34=199|49=client1|52=20221125-12:03:23.000|56=gateway|10=038|8=FIXT.1.1|9=59|35=0|34=200|49=client1|52=20221125-12:03:53.000|56=gateway|10=024|8=FIXT.1.1|9=59|35=0|34=201|49=client1|52=20221125-12:04:23.000|56=gateway|10=023|8=FIXT.1.1|9=59|35=0|34=202|49=client1|52=20221125-12:04:53.000|56=gateway|10=027|8=FIXT.1.1|9=59|35=0|34=203|49=client1|52=20221125-12:05:23.000|56=gateway|10=026|8=FIXT.1.1|9=59|35=0|34=204|49=client1|52=20221125-12:05:53.000|56=gateway|10=030|8=FIXT.1.1|9=59|35=0|34=205|49=client1|52=20221125-12:06:23.000|56=gateway|10=029|8=FIXT.1.1|9=59|35=0|34=206|49=client1|52=20221125-12:06:53.000|56=gateway|10=033|8=FIXT.1.1|9=59|35=0|34=207|49=client1|52=20221125-12:07:23.000|56=gateway|10=032|8=FIXT.1.1|9=59|35=0|34=208|49=client1|52=20221125-12:07:53.000|56=gateway|10=036|8=FIXT.1.1|9=59|35=0|34=209|49=client1|52=20221125-12:08:23.000|56=gateway|10=035|8=FIXT.1.1|9=59|35=0|34=210|49=client1|52=20221125-12:08:53.000|56=gateway|10=030|8=FIXT.1.1|9=59|35=0|34=211|49=client1|52=20221125-12:09:23.000|56=gateway|10=029|8=FIXT.1.1|9=59|35=0|34=212|49=client1|52=20221125-12:09:53.000|56=gateway|10=033|8=FIXT.1.1|9=59|35=0|34=213|49=client1|52=20221125-12:10:23.000|56=gateway|10=023|8=FIXT.1.1|9=59|35=0|34=214|49=client1|52=20221125-12:10:53.000|56=gateway|10=027|8=FIXT.1.1|9=59|35=0|34=215|49=client1|52=20221125-12:11:23.000|56=gateway|10=026|8=FIXT.1.1|9=59|35=0|34=216|49=client1|52=20221125-12:11:53.000|56=gateway|10=030|8=FIXT.1.1|9=59|35=0|34=217|49=client1|52=20221125-12:12:23.000|56=gateway|10=029|8=FIXT.1.1|9=59|35=0|34=218|49=client1|52=20221125-12:12:53.000|56=gateway|10=033|8=FIXT.1.1|9=59|35=0|34=219|49=client1|52=20221125-12:13:23.000|56=gateway|10=032|8=FIXT.1.1|9=59|35=0|34=220|49=client1|52=20221125-12:13:53.000|56=gateway|10=027|8=FIXT.1.1|9=59|35=0|34=221|49=client1|52=20221125-12:14:23.000|56=gateway|10=026|8=FIXT.1.1|9=59|35=0|34=222|49=client1|52=20221125-12:14:53.000|56=gateway|10=030|8=FIXT.1.1|9=59|35=0|34=223|49=client1|52=20221125-12:15:23.000|56=gateway|10=029|8=FIXT.1.1|9=59|35=0|34=224|49=client1|52=20221125-12:15:53.000|56=gateway|10=033|8=FIXT.1.1|9=59|35=0|34=225|49=client1|52=20221125-12:16:23.000|56=gateway|10=032|8=FIXT.1.1|9=59|35=0|34=226|49=client1|52=20221125-12:16:53.000|56=gateway|10=036|8=FIXT.1.1|9=59|35=0|34=227|49=client1|52=20221125-12:17:23.000|56=gateway|10=035|8=FIXT.1.1|9=59|35=0|34=228|49=client1|52=20221125-12:17:53.000|56=gateway|10=039|8=FIXT.1.1|9=59|35=0|34=229|49=client1|52=20221125-12:18:23.000|56=gateway|10=038|8=FIXT.1.1|9=59|35=0|34=230|49=client1|52=20221125-12:18:53.000|56=gateway|10=033|8=FIXT.1.1|9=59|35=0|34=231|49=client1|52=20221125-12:19:23.000|56=gateway|10=032|8=FIXT.1.1|9=59|35=0|34=232|49=client1|52=20221125-12:19:53.000|56=gateway|10=036|8=FIXT.1.1|9=59|35=0|34=233|49=client1|52=20221125-12:20:23.000|56=gateway|10=026|8=FIXT.1.1|9=59|35=0|34=234|49=client1|52=20221125-12:20:53.000|56=gateway|10=030|8=FIXT.1.1|9=59|35=0|34=235|49=client1|52=20221125-12:21:23.000|56=gateway|10=029|8=FIXT.1.1|9=59|35=0|34=236|49=client1|52=20221125-12:21:53.000|56=gateway|10=033|8=FIXT.1.1|9=59|35=0|34=237|49=client1|52=20221125-12:22:23.000|56=gateway|10=032|8=FIXT.1.1|9=59|35=0|34=238|49=client1|52=20221125-12:22:53.000|56=gateway|10=036|8=FIXT.1.1|9=59|35=0|34=239|49=client1|52=20221125-12:23:23.000|56=gateway|10=035|8=FIXT.1.1|9=59|35=0|34=240|49=client1|52=20221125-12:23:53.000|56=gateway|10=030|8=FIXT.1.1|9=59|35=0|34=241|49=client1|52=20221125-12:24:23.000|56=gateway|10=029|8=FIXT.1.1|9=59|35=0|34=242|49=client1|52=20221125-12:24:53.000|56=gateway|10=033|8=FIXT.1.1|9=59|35=0|34=243|49=client1|52=20221125-12:25:23.000|56=gateway|10=032|8=FIXT.1.1|9=59|35=0|34=244|49=client1|52=20221125-12:25:53.000|56=gateway|10=036|8=FIXT.1.1|9=59|35=0|34=245|49=client1|52=20221125-12:26:23.000|56=gateway|10=035|8=FIXT.1.1|9=59|35=0|34=246|49=client1|52=20221125-12:26:53.000|56=gateway|10=039|8=FIXT.1.1|9=59|35=0|34=247|49=client1|52=20221125-12:27:23.000|56=gateway|10=038|8=FIXT.1.1|9=59|35=0|34=248|49=client1|52=20221125-12:27:53.000|56=gateway|10=042|8=FIXT.1.1|9=59|35=0|34=249|49=client1|52=20221125-12:28:23.000|56=gateway|10=041|8=FIXT.1.1|9=59|35=0|34=250|49=client1|52=20221125-12:28:53.000|56=gateway|10=036|8=FIXT.1.1|9=59|35=0|34=251|49=client1|52=20221125-12:29:23.000|56=gateway|10=035|8=FIXT.1.1|9=59|35=0|34=252|49=client1|52=20221125-12:29:53.000|56=gateway|10=039|8=FIXT.1.1|9=124|35=D|34=253|49=client1|52=20221125-12:30:15.000|56=gateway|1128=7|11=c1|38=100|40=1|54=1|59=0|60=20221125-12:29:49|20005=19|10=063|8=FIXT.1.1|9=68|35=1|34=254|49=client1|52=20221125-12:30:29.000|56=gateway|112=TEST|10=055|8=FIXT.1.1|9=59|35=0|34=255|49=client1|52=20221125-12:30:59.000|56=gateway|10=040|8=FIXT.1.1|9=68|35=1|34=256|49=client1|52=20221125-12:31:23.000|56=gateway|112=TEST|10=052|8=FIXT.1.1|9=78|35=A|34=257|49=client1|52=20221125-12:32:00.000|56=gateway|98=0|108=30|1137=9|10=140|8=FIXT.1.1|9=124|35=D|34=258|49=client1|52=20221125-12:32:30.000|56=gateway|1128=7|11=c1|38=100|40=1|54=1|59=0|60=20221125-12:32:11|20005=19|10=050|8=FIXT.1.1|9=78|35=A|34=259|49=client1|52=20221125-12:32:53.000|56=gateway|98=0|108=30|1137=9|10=150|8=FIXT.1.1|9=70|35=2|34=260|49=client1|52=20221125-12:32:53.000|56=gateway|7=232|16=0|10=252|8=FIXT.1.1|9=59|35=0|34=261|49=client1|52=20221125-12:33:23.000|56=gateway|10=031|8=FIXT.1.1|9=124|35=D|34=262|49=client1|52=20221125-12:33:38.000|56=gateway|1128=7|11=c1|38=100|40=1|54=1|59=0|60=20221125-12:33:21|20005=19|10=056|8=FIXT.1.1|9=68|35=1|34=263|49=client1|52=20221125-12:33:59.000|56=gateway|112=TEST|10=061|8=FIXT.1.1|9=59|35=0|34=264|49=client1|52=20221125-12:34:29.000|56=gateway|10=041|8=FIXT.1.1|9=68|35=1|34=265|49=client1|52=20221125-12:34:40.000|56=gateway|112=TEST|10=054|8=FIXT.1.1|9=78|35=A|34=266|49=client1|52=20221125-12:35:16.000|56=gateway|98=0|108=30|1137=9|10=150|8=FIXT.1.1|9=78|35=A|34=267|49=client1|52=20221125-12:35:53.000|56=gateway|98=0|108=30|1137=9|10=152|8=FIXT.1.1|9=70|35=2|34=268|49=client1|52=20221125-12:35:59.000|56=gateway|7=239|16=0|10=020|8=FIXT.1.1|9=59|35=0|34=269|49=client1|52=20221125-12:36:29.000|56=gateway|10=048|8=FIXT.1.1|9=59|35=0|34=270|49=client1|52=20221125-12:36:59.000|56=gateway|10=043|8=FIXT.1.1|9=59|35=0|34=271|49=client1|52=20221125-12:37:29.000|56=gateway|10=042|8=FIXT.1.1|9=59|35=0|34=272|49=client1|52=20221125-12:37:59.000|56=gateway|10=046|8=FIXT.1.1|9=59|35=0|34=273|49=client1|52=20221125-12:38:29.000|56=gateway|10=045|8=FIXT.1.1|9=59|35=0|34=274|49=client1|52=20221125-12:38:59.000|56=gateway|10=049|8=FIXT.1.1|9=59|35=0|34=275|49=client1|52=20221125-12:39:29.000|56=gateway|10=048|8=FIXT.1.1|9=59|35=0|34=276|49=client1|52=20221125-12:39:59.000|56=gateway|10=052|8=FIXT.1.1|9=59|35=0|34=277|49=client1|52=20221125-12:40:29.000|56=gateway|10=042|8=FIXT.1.1|9=59|35=0|34=278|49=client1|52=20221125-12:40:59.000|56=gateway|10=046|8=FIXT.1.1|9=59|35=0|34=279|49=client1|52=20221125-12:41:29.000|56=gateway|10=045|8=FIXT.1.1|9=124|35=D|34=280|49=client1|52=20221125-12:41:52.000|56=gateway|1128=7|11=c1|38=100|40=1|54=1|59=0|60=20221125-12:41:35|20005=19|10=055|8=FIXT.1.1|9=68|35=1|34=281|49=client1|52=20221125-12:42:05.000|56=gateway|112=TEST|10=052|8=FIXT.1.1|9=78|35=A|34=282|49=client1|52=20221125-12:42:41.000|56=gateway|98=0|108=30|1137=9|10=144|8=FIXT.1.1|9=78|35=A|34=283|49=client1|52=20221125-12:42:54.000|56=gateway|98=0|108=30|1137=9|10=149|8=FIXT.1.1|9=78|35=A|34=284|49=client1|52=20221125-12:43:04.000|56=gateway|98=0|108=30|1137=9|10=146|8=FIXT.1.1|9=78|35=A|34=285|49=client1|52=20221125-12:43:54.000|56=gateway|98=0|108=30|1137=9|10=152|8=FIXT.1.1|9=78|35=A|34=286|49=client1|52=20221125-12:44:04.000|56=gateway|98=0|108=30|1137=9|10=149|8=FIXT.1.1|9=78|35=A|34=287|49=client1|52=20221125-12:44:54.000|56=gateway|98=0|108=30|1137=9|10=155|8=FIXT.1.1|9=78|35=A|34=288|49=client1|52=20221125-12:45:04.000|56=gateway|98=0|108=30|1137=9|10=152|8=FIXT.1.1|9=78|35=A|34=289|49=client1|52=20221125-12:45:54.000|56=gateway|98=0|108=30|1137=9|10=158|8=FIXT.1.1|9=78|35=A|34=290|49=client1|52=20221125-12:46:04.000|56=gateway|98=0|108=30|1137=9|10=146|8=FIXT.1.1|9=78|35=A|34=291|49=client1|52=20221125-12:46:54.000|56=gateway|98=0|108=30|1137=9|10=152|8=FIXT.1.1|9=78|35=A|34=292|49=client1|52=20221125-12:47:04.000|56=gateway|98=0|108=30|1137=9|10=149|8=FIXT.1.1|9=78|35=A|34=293|49=client1|52=20221125-12:47:54.000|56=gateway|98=0|108=30|1137=9|10=155|8=FIXT.1.1|9=78|35=A|34=294|49=client1|52=20221125-12:48:04.000|56=gateway|98=0|108=30|1137=9|10=152|8=FIXT.1.1|9=78|35=A|34=295|49=client1|52=20221125-12:48:54.000|56=gateway|98=0|108=30|1137=9|10=158|8=FIXT.1.1|9=78|35=A|34=296|49=client1|52=20221125-12:49:04.000|56=gateway|98=0|108=30|1137=9|10=155|8=FIXT.1.1|9=78|35=A|34=297|49=client1|52=20221125-12:49:54.000|56=gateway|98=0|108=30|1137=9|10=161|8=FIXT.1.1|9=78|35=A|34=298|49=client1|52=20221125-12:50:04.000|56=gateway|98=0|108=30|1137=9|10=149|8=FIXT.1.1|9=78|35=A|34=299|49=client1|52=20221125-12:50:54.000|56=gateway|98=0|108=30|1137=9|10=155|8=FIXT.1.1|9=70|35=2|34=300|49=client1|52=20221125-12:50:54.000|56=gateway|7=255|16=0|10=253|8=FIXT.1.1|9=59|35=0|34=301|49=client1|52=20221125-12:51:24.000|56=gateway|10=027|8=FIXT.1.1|9=59|35=0|34=302|49=client1|52=20221125-12:51:54.000|56=gateway|10=031|8=FIXT.1.1|9=59|35=0|34=303|49=client1|52=20221125-12:52:24.000|56=gateway|10=030|8=FIXT.1.1|9=59|35=0|34=304|49=client1|52=20221125-12:52:54.000|56=gateway|10=034|8=FIXT.1.1|9=59|35=0|34=305|49=client1|52=20221125-12:53:24.000|56=gateway|10=033|8=FIXT.1.1|9=59|35=0|34=306|49=client1|52=20221125-12:53:54.000|56=gateway|10=037|8=FIXT.1.1|9=59|35=0|34=307|49=client1|52=20221125-12:54:24.000|56=gateway|10=036|8=FIXT.1.1|9=59|35=0|34=308|49=client1|52=20221125-12:54:54.000|56=gateway|10=040|8=FIXT.1.1|9=59|35=0|34=309|49=client1|52=20221125-12:55:24.000|56=gateway|10=039|8=FIXT.1.1|9=59|35=0|34=310|49=client1|52=20221125-12:55:54.000|56=gateway|10=034|8=FIXT.1.1|9=59|35=0|34=311|49=client1|52=20221125-12:56:24.000|56=gateway|10=033|8=FIXT.1.1|9=59|35=0|34=312|49=client1|52=20221125-12:56:54.000|56=gateway|10=037|8=FIXT.1.1|9=59|35=0|34=313|49=client1|52=20221125-12:57:24.000|56=gateway|10=036|8=FIXT.1.1|9=59|35=0|34=314|49=client1|52=20221125-12:57:54.000|56=gateway|10=040|8=FIXT.1.1|9=59|35=0|34=315|49=client1|52=20221125-12:58:24.000|56=gateway|10=039|8=FIXT.1.1|9=59|35=0|34=316|49=client1|52=20221125-12:58:54.000|56=gateway|10=043|8=FIXT.1.1|9=59|35=0|34=317|49=client1|52=20221125-12:59:24.000|56=gateway|10=042|8=FIXT.1.1|9=59|35=0|34=318|49=client1|52=20221125-12:59:54.000|56=gateway|10=046|8=FIXT.1.1|9=59|35=0|34=319|49=client1|52=20221125-13:00:24.000|56=gateway|10=031|8=FIXT.1.1|9=59|35=0|34=320|49=client1|52=20221125-13:00:54.000|56=gateway|10=026|8=FIXT.1.1|9=59|35=0|34=321|49=client1|52=20221125-13:01:24.000|56=gateway|10=025|8=FIXT.1.1|9=59|35=0|34=322|49=client1|52=20221125-13:01:54.000|56=gateway|10=029|8=FIXT.1.1|9=59|35=0|34=323|49=client1|52=20221125-13:02:24.000|56=gateway|10=028|8=FIXT.1.1|9=59|35=0|34=324|49=client1|52=20221125-13:02:54.000|56=gateway|10=032|8=FIXT.1.1|9=59|35=0|34=325|49=client1|52=20221125-13:03:24.000|56=gateway|10=031|8=FIXT.1.1|9=59|35=0|34=326|49=client1|52=20221125-13:03:54.000|56=gateway|10=035|8=FIXT.1.1|9=59|35=0|34=327|49=client1|52=20221125-13:04:24.000|56=gateway|10=034|8=FIXT.1.1|9=59|35=0|34=328|49=client1|52=20221125-13:04:54.000|56=gateway|10=038|8=FIXT.1.1|9=59|35=0|34=329|49=client1|52=20221125-13:05:24.000|56=gateway|10=037|8=FIXT.1.1|9=59|35=0|34=330|49=client1|52=20221125-13:05:54.000|56=gateway|10=032|8=FIXT.1.1|9=59|35=0|34=331|49=client1|52=20221125-13:06:24.000|56=gateway|10=031|8=FIXT.1.1|9=59|35=0|34=332|49=client1|52=20221125-13:06:54.000|56=gateway|10=035|8=FIXT.1.1|9=59|35=0|34=333|49=client1|52=20221125-13:07:24.000|56=gateway|10=034|8=FIXT.1.1|9=59|35=0|34=334|49=client1|52=20221125-13:07:54.000|56=gateway|10=038|8=FIXT.1.1|9=59|35=0|34=335|49=client1|52=20221125-13:08:25.000|56=gateway|10=038|8=FIXT.1.1|9=59|35=0|34=336|49=client1|52=20221125-13:08:55.000|56=gateway|10=042|8=FIXT.1.1|9=59|35=0|34=337|49=client1|52=20221125-13:09:25.000|56=gateway|10=041|8=FIXT.1.1|9=59|35=0|34=338|49=client1|52=20221125-13:09:55.000|56=gateway|10=045|8=FIXT.1.1|9=59|35=0|34=339|49=client1|52=20221125-13:10:25.000|56=gateway|10=035|8=FIXT.1.1|9=59|35=0|34=340|49=client1|52=20221125-13:10:55.000|56=gateway|10=030|8=FIXT.1.1|9=59|35=0|34=341|49=client1|52=20221125-13:11:25.000|56=gateway|10=029|8=FIXT.1.1|9=59|35=0|34=342|49=client1|52=20221125-13:11:55.000|56=gateway|10=033|8=FIXT.1.1|9=59|35=0|34=343|49=client1|52=20221125-13:12:25.000|56=gateway|10=032|8=FIXT.1.1|9=59|35=0|34=344|49=client1|52=20221125-13:12:55.000|56=gateway|10=036|8=FIXT.1.1|9=59|35=0|34=345|49=client1|52=20221125-13:13:25.000|56=gateway|10=035|8=FIXT.1.1|9=59|35=0|34=346|49=client1|52=20221125-13:13:55.000|56=gateway|10=039|8=FIXT.1.1|9=59|35=0|34=347|49=client1|52=20221125-13:14:25.000|56=gateway|10=038|8=FIXT.1.1|9=59|35=0|34=348|49=client1|52=20221125-13:14:55.000|56=gateway|10=042|8=FIXT.1.1|9=59|35=0|34=349|49=client1|52=20221125-13:15:25.000|56=gateway|10=041|8=FIXT.1.1|9=59|35=0|34=350|49=client1|52=20221125-13:15:55.000|56=gateway|10=036|8=FIXT.1.1|9=59|35=0|34=351|49=client1|52=20221125-13:16:25.000|56=gateway|10=035|8=FIXT.1.1|9=59|35=0|34=352|49=client1|52=20221125-13:16:55.000|56=gateway|10=039|8=FIXT.1.1|9=59|35=0|34=353|49=client1|52=20221125-13:17:25.000|56=gateway|10=038|8=FIXT.1.1|9=59|35=0|34=354|49=client1|52=20221125-13:17:55.000|56=gateway|10=042|8=FIXT.1.1|9=59|35=0|34=355|49=client1|52=20221125-13:18:25.000|56=gateway|10=041|8=FIXT.1.1|9=59|35=0|34=356|49=client1|52=20221125-13:18:55.000|56=gateway|10=045|8=FIXT.1.1|9=59|35=0|34=357|49=client1|52=20221125-13:19:25.000|56=gateway|10=044|8=FIXT.1.1|9=59|35=0|34=358|49=client1|52=20221125-13:19:55.000|56=gateway|10=048|8=FIXT.1.1|9=59|35=0|34=359|49=client1|52=20221125-13:20:25.000|56=gateway|10=038|8=FIXT.1.1|9=59|35=0|34=360|49=client1|52=20221125-13:20:55.000|56=gateway|10=033|8=FIXT.1.1|9=59|35=0|34=361|49=client1|52=20221125-13:21:25.000|56=gateway|10=032|8=FIXT.1.1|9=59|35=0|34=362|49=client1|52=20221125-13:21:55.000|56=gateway|10=036|8=FIXT.1.1|9=59|35=0|34=363|49=client1|52=20221125-13:22:25.000|56=gateway|10=035|8=FIXT.1.1|9=59|35=0|34=364|49=client1|52=20221125-13:22:55.000|56=gateway|10=039|8=FIXT.1.1|9=59|35=0|34=365|49=client1|52=20221125-13:23:25.000|56=gateway|10=038|8=FIXT.1.1|9=59|35=0|34=366|49=client1|52=20221125-13:23:55.000|56=gateway|10=042|8=FIXT.1.1|9=59|35=0|34=367|49=client1|52=20221125-13:24:25.000|56=gateway|10=041|8=FIXT.1.1|9=59|35=0|34=368|49=client1|52=20221125-13:24:55.000|56=gateway|10=045|8=FIXT.1.1|9=59|35=0|34=369|49=client1|52=20221125-13:25:25.000|56=gateway|10=044|8=FIXT.1.1|9=59|35=0|34=370|49=client1|52=20221125-13:25:55.000|56=gateway|10=039|8=FIXT.1.1|9=59|35=0|34=371|49=client1|52=20221125-13:26:25.000|56=gateway|10=038|8=FIXT.1.1|9=59|35=0|34=372|49=client1|52=20221125-13:26:55.000|56=gateway|10=042|8=FIXT.1.1|9=59|35=0|34=373|49=client1|52=20221125-13:27:25.000|56=gateway|10=041|8=FIXT.1.1|9=59|35=0|34=374|49=client1|52=20221125-13:27:55.000|56=gateway|10=045|8=FIXT.1.1|9=59|35=0|34=375|49=client1|52=20221125-13:28:25.000|56=gateway|10=044|8=FIXT.1.1|9=59|35=0|34=376|49=client1|52=20221125-13:28:55.000|56=gateway|10=048|8=FIXT.1.1|9=59|35=0|34=377|49=client1|52=20221125-13:29:25.000|56=gateway|10=047|8=FIXT.1.1|9=59|35=0|34=378|49=client1|52=20221125-13:29:55.000|56=gateway|10=051|8=FIXT.1.1|9=59|35=0|34=379|49=client1|52=20221125-13:30:25.000|56=gateway|10=041|8=FIXT.1.1|9=59|35=0|34=380|49=client1|52=20221125-13:30:55.000|56=gateway|10=036|8=FIXT.1.1|9=59|35=0|34=381|49=client1|52=20221125-13:31:25.000|56=gateway|10=035|8=FIXT.1.1|9=59|35=0|34=382|49=client1|52=20221125-13:31:55.000|56=gateway|10=039|8=FIXT.1.1|9=59|35=0|34=383|49=client1|52=20221125-13:32:25.000|56=gateway|10=038|8=FIXT.1.1|9=59|35=0|34=384|49=client1|52=20221125-13:32:55.000|56=gateway|10=042|8=FIXT.1.1|9=59|35=0|34=385|49=client1|52=20221125-13:33:25.000|56=gateway|10=041|8=FIXT.1.1|9=59|35=0|34=386|49=client1|52=20221125-13:33:55.000|56=gateway|10=045|8=FIXT.1.1|9=59|35=0|34=387|49=client1|52=20221125-13:34:25.000|56=gateway|10=044|8=FIXT.1.1|9=59|35=0|34=388|49=client1|52=20221125-13:34:55.000|56=gateway|10=048|8=FIXT.1.1|9=59|35=0|34=389|49=client1|52=20221125-13:35:25.000|56=gateway|10=047|8=FIXT.1.1|9=59|35=0|34=390|49=client1|52=20221125-13:35:55.000|56=gateway|10=042|8=FIXT.1.1|9=59|35=0|34=391|49=client1|52=20221125-13:36:25.000|56=gateway|10=041|8=FIXT.1.1|9=59|35=0|34=392|49=client1|52=20221125-13:36:55.000|56=gateway|10=045|8=FIXT.1.1|9=59|35=0|34=393|49=client1|52=20221125-13:37:25.000|56=gateway|10=044|8=FIXT.1.1|9=59|35=0|34=394|49=client1|52=20221125-13:37:55.000|56=gateway|10=048|8=FIXT.1.1|9=59|35=0|34=395|49=client1|52=20221125-13:38:25.000|56=gateway|10=047|8=FIXT.1.1|9=59|35=0|34=396|49=client1|52=20221125-13:38:55.000|56=gateway|10=051|8=FIXT.1.1|9=59|35=0|34=397|49=client1|52=20221125-13:39:25.000|56=gateway|10=050|8=FIXT.1.1|9=59|35=0|34=398|49=client1|52=20221125-13:39:55.000|56=gateway|10=054|8=FIXT.1.1|9=59|35=0|34=399|49=client1|52=20221125-13:40:25.000|56=gateway|10=044|8=FIXT.1.1|9=59|35=0|34=400|49=client1|52=20221125-13:40:55.000|56=gateway|10=030|8=FIXT.1.1|9=59|35=0|34=401|49=client1|52=20221125-13:41:25.000|56=gateway|10=029|8=FIXT.1.1|9=59|35=0|34=402|49=client1|52=20221125-13:41:55.000|56=gateway|10=033|8=FIXT.1.1|9=59|35=0|34=403|49=client1|52=20221125-13:42:25.000|56=gateway|10=032|8=FIXT.1.1|9=59|35=0|34=404|49=client1|52=20221125-13:42:55.000|56=gateway|10=036|8=FIXT.1.1|9=59|35=0|34=405|49=client1|52=20221125-13:43:25.000|56=gateway|10=035|8=FIXT.1.1|9=59|35=0|34=406|49=client1|52=20221125-13:43:55.000|56=gateway|10=039|8=FIXT.1.1|9=59|35=0|34=407|49=client1|52=20221125-13:44:25.000|56=gateway|10=038|8=FIXT.1.1|9=59|35=0|34=408|49=client1|52=20221125-13:44:55.000|56=gateway|10=042|8=FIXT.1.1|9=59|35=0|34=409|49=client1|52=20221125-13:45:25.000|56=gateway|10=041|8=FIXT.1.1|9=59|35=0|34=410|49=client1|52=20221125-13:45:55.000|56=gateway|10=036|8=FIXT.1.1|9=59|35=0|34=411|49=client1|52=20221125-13:46:25.000|56=gateway|10=035|8=FIXT.1.1|9=59|35=0|34=412|49=client1|52=20221125-13:46:55.000|56=gateway|10=039|8=FIXT.1.1|9=59|35=0|34=413|49=client1|52=20221125-13:47:25.000|56=gateway|10=038|8=FIXT.1.1|9=59|35=0|34=414|49=client1|52=20221125-13:47:55.000|56=gateway|10=042|8=FIXT.1.1|9=59|35=0|34=415|49=client1|52=20221125-13:48:25.000|56=gateway|10=041|8=FIXT.1.1|9=59|35=0|34=416|49=client1|52=20221125-13:48:55.000|56=gateway|10=045|8=FIXT.1.1|9=59|35=0|34=417|49=client1|52=20221125-13:49:25.000|56=gateway|10=044|8=FIXT.1.1|9=59|35=0|34=418|49=client1|52=20221125-13:49:55.000|56=gateway|10=048|8=FIXT.1.1|9=59|35=0|34=419|49=client1|52=20221125-13:50:25.000|56=gateway|10=038|8=FIXT.1.1|9=59|35=0|34=420|49=client1|52=20221125-13:50:55.000|56=gateway|10=033|8=FIXT.1.1|9=59|35=0|34=421|49=client1|52=20221125-13:51:25.000|56=gateway|10=032|8=FIXT.1.1|9=59|35=0|34=422|49=client1|52=20221125-13:51:55.000|56=gateway|10=036|8=FIXT.1.1|9=59|35=0|34=423|49=client1|52=20221125-13:52:25.000|56=gateway|10=035|8=FIXT.1.1|9=59|35=0|34=424|49=client1|52=20221125-13:52:55.000|56=gateway|10=039|8=FIXT.1.1|9=59|35=0|34=425|49=client1|52=20221125-13:53:25.000|56=gateway|10=038|8=FIXT.1.1|9=59|35=0|34=426|49=client1|52=20221125-13:53:55.000|56=gateway|10=042|8=FIXT.1.1|9=59|35=0|34=427|49=client1|52=20221125-13:54:25.000|56=gateway|10=041|8=FIXT.1.1|9=59|35=0|34=428|49=client1|52=20221125-13:54:55.000|56=gateway|10=045|8=FIXT.1.1|9=59|35=0|34=429|49=client1|52=20221125-13:55:25.000|56=gateway|10=044|8=FIXT.1.1|9=59|35=0|34=430|49=client1|52=20221125-13:55:55.000|56=gateway|10=039|8=FIXT.1.1|9=59|35=0|34=431|49=client1|52=20221125-13:56:25.000|56=gateway|10=038|8=FIXT.1.1|9=59|35=0|34=432|49=client1|52=20221125-13:56:55.000|56=gateway|10=042|8=FIXT.1.1|9=123|35=D|34=433|49=client1|52=20221125-13:57:12.000|56=gateway|1128=7|11=1|38=100|40=1|54=1|59=0|60=20221125-13:56:53|20005=19|10=222|8=FIXT.1.1|9=68|35=1|34=434|49=client1|52=20221125-13:57:31.000|56=gateway|112=TEST|10=058|8=FIXT.1.1|9=68|35=0|34=435|49=client1|52=20221125-13:57:52.000|56=gateway|112=TEST|10=061|8=FIXT.1.1|9=59|35=0|34=436|49=client1|52=20221125-13:58:22.000|56=gateway|10=042|8=FIXT.1.1|9=68|35=1|34=437|49=client1|52=20221125-13:58:28.000|56=gateway|112=TEST|10=068|8=FIXT.1.1|9=78|35=A|34=438|49=client1|52=20221125-13:59:04.000|56=gateway|98=0|108=30|1137=9|10=155|8=FIXT.1.1|9=78|35=A|34=439|49=client1|52=20221125-13:59:54.000|56=gateway|98=0|108=30|1137=9|10=161|8=FIXT.1.1|9=78|35=A|34=440|49=client1|52=20221125-14:00:04.000|56=gateway|98=0|108=30|1137=9|10=135|8=FIXT.1.1|9=78|35=A|34=441|49=client1|52=20221125-14:00:54.000|56=gateway|98=0|108=30|1137=9|10=141|8=FIXT.1.1|9=70|35=2|34=442|49=client1|52=20221125-14:00:54.000|56=gateway|7=396|16=0|10=007|8=FIXT.1.1|9=59|35=0|34=443|49=client1|52=20221125-14:01:24.000|56=gateway|10=031|8=FIXT.1.1|9=59|35=0|34=444|49=client1|52=20221125-14:01:54.000|56=gateway|10=035|8=FIXT.1.1|9=59|35=0|34=445|49=client1|52=20221125-14:02:24.000|56=gateway|10=034|8=FIXT.1.1|9=59|35=0|34=446|49=client1|52=20221125-14:02:54.000|56=gateway|10=038|8=FIXT.1.1|9=59|35=0|34=447|49=client1|52=20221125-14:03:24.000|56=gateway|10=037|8=FIXT.1.1|9=124|35=D|34=448|49=client1|52=20221125-14:03:32.000|56=gateway|1128=7|11=c1|38=100|40=1|54=1|59=0|60=20221125-14:03:04|20005=19|10=055|8=FIXT.1.1|9=68|35=1|34=449|49=client1|52=20221125-14:04:00.000|56=gateway|112=TEST|10=053|8=FIXT.1.1|9=59|35=0|34=450|49=client1|52=20221125-14:04:30.000|56=gateway|10=029|8=FIXT.1.1|9=59|35=0|34=451|49=client1|52=20221125-14:05:00.000|56=gateway|10=028|8=FIXT.1.1|9=59|35=0|34=452|49=client1|52=20221125-14:05:30.000|56=gateway|10=032|8=FIXT.1.1|9=59|35=0|34=453|49=client1|52=20221125-14:06:00.000|56=gateway|10=031|8=FIXT.1.1|9=124|35=D|34=454|49=client1|52=20221125-14:06:10.000|56=gateway|1128=7|11=c1|38=100|40=1|54=1|59=0|60=20221125-14:05:51|20005=19|10=055|8=FIXT.1.1|9=68|35=1|34=455|49=client1|52=20221125-14:06:32.000|56=gateway|112=TEST|10=057|8=FIXT.1.1|9=78|35=A|34=456|49=client1|52=20221125-14:07:08.000|56=gateway|98=0|108=30|1137=9|10=153|8=FIXT.1.1|9=78|35=A|34=457|49=client1|52=20221125-14:07:54.000|56=gateway|98=0|108=30|1137=9|10=155|8=FIXT.1.1|9=78|35=A|34=458|49=client1|52=20221125-14:08:04.000|56=gateway|98=0|108=30|1137=9|10=152|8=FIXT.1.1|9=78|35=A|34=459|49=client1|52=20221125-14:08:54.000|56=gateway|98=0|108=30|1137=9|10=158|8=FIXT.1.1|9=78|35=A|34=460|49=client1|52=20221125-14:09:04.000|56=gateway|98=0|108=30|1137=9|10=146|8=FIXT.1.1|9=78|35=A|34=461|49=client1|52=20221125-14:09:54.000|56=gateway|98=0|108=30|1137=9|10=152|8=FIXT.1.1|9=78|35=A|34=462|49=client1|52=20221125-14:10:04.000|56=gateway|98=0|108=30|1137=9|10=140|8=FIXT.1.1|9=78|35=A|34=463|49=client1|52=20221125-14:10:54.000|56=gateway|98=0|108=30|1137=9|10=146|8=FIXT.1.1|9=78|35=A|34=464|49=client1|52=20221125-14:11:04.000|56=gateway|98=0|108=30|1137=9|10=143|8=FIXT.1.1|9=78|35=A|34=465|49=client1|52=20221125-14:11:54.000|56=gateway|98=0|108=30|1137=9|10=149|8=FIXT.1.1|9=78|35=A|34=466|49=client1|52=20221125-14:12:04.000|56=gateway|98=0|108=30|1137=9|10=146|8=FIXT.1.1|9=78|35=A|34=467|49=client1|52=20221125-14:12:54.000|56=gateway|98=0|108=30|1137=9|10=152|8=FIXT.1.1|9=78|35=A|34=468|49=client1|52=20221125-14:13:04.000|56=gateway|98=0|108=30|1137=9|10=149|8=FIXT.1.1|9=78|35=A|34=469|49=client1|52=20221125-14:13:54.000|56=gateway|98=0|108=30|1137=9|10=155|8=FIXT.1.1|9=78|35=A|34=470|49=client1|52=20221125-14:14:04.000|56=gateway|98=0|108=30|1137=9|10=143|8=FIXT.1.1|9=78|35=A|34=471|49=client1|52=20221125-14:14:54.000|56=gateway|98=0|108=30|1137=9|10=149|8=FIXT.1.1|9=70|35=2|34=472|49=client1|52=20221125-14:14:55.000|56=gateway|7=413|16=0|10=006|8=FIXT.1.1|9=124|35=D|34=473|49=client1|52=20221125-14:15:03.000|56=gateway|1128=7|11=c1|38=100|40=1|54=1|59=0|60=20221125-14:14:46|20005=19|10=062|8=FIXT.1.1|9=68|35=1|34=474|49=client1|52=20221125-14:15:31.000|56=gateway|112=TEST|10=057|8=FIXT.1.1|9=78|35=A|34=475|49=client1|52=20221125-14:16:07.000|56=gateway|98=0|108=30|1137=9|10=153|8=FIXT.1.1|9=78|35=A|34=476|49=client1|52=20221125-14:16:54.000|56=gateway|98=0|108=30|1137=9|10=156|8=FIXT.1.1|9=78|35=A|34=477|49=client1|52=20221125-14:17:04.000|56=gateway|98=0|108=30|1137=9|10=153|8=FIXT.1.1|9=78|35=A|34=478|49=client1|52=20221125-14:17:54.000|56=gateway|98=0|108=30|1137=9|10=159|8=FIXT.1.1|9=78|35=A|34=479|49=client1|52=20221125-14:18:04.000|56=gateway|98=0|108=30|1137=9|10=156|8=FIXT.1.1|9=78|35=A|34=480|49=client1|52=20221125-14:18:54.000|56=gateway|98=0|108=30|1137=9|10=153|8=FIXT.1.1|9=78|35=A|34=481|49=client1|52=20221125-14:19:04.000|56=gateway|98=0|108=30|1137=9|10=150|8=FIXT.1.1|9=78|35=A|34=482|49=client1|52=20221125-14:19:54.000|56=gateway|98=0|108=30|1137=9|10=156|8=FIXT.1.1|9=78|35=A|34=483|49=client1|52=20221125-14:20:04.000|56=gateway|98=0|108=30|1137=9|10=144|8=FIXT.1.1|9=78|35=A|34=484|49=client1|52=20221125-14:20:54.000|56=gateway|98=0|108=30|1137=9|10=150|8=FIXT.1.1|9=78|35=A|34=485|49=client1|52=20221125-14:21:04.000|56=gateway|98=0|108=30|1137=9|10=147|8=FIXT.1.1|9=78|35=A|34=486|49=client1|52=20221125-14:21:54.000|56=gateway|98=0|108=30|1137=9|10=153|8=FIXT.1.1|9=78|35=A|34=487|49=client1|52=20221125-14:22:04.000|56=gateway|98=0|108=30|1137=9|10=150|8=FIXT.1.1|9=78|35=A|34=488|49=client1|52=20221125-14:22:54.000|56=gateway|98=0|108=30|1137=9|10=156|8=FIXT.1.1|9=78|35=A|34=489|49=client1|52=20221125-14:23:04.000|56=gateway|98=0|108=30|1137=9|10=153|8=FIXT.1.1|9=78|35=A|34=490|49=client1|52=20221125-14:23:54.000|56=gateway|98=0|108=30|1137=9|10=150|8=FIXT.1.1|9=78|35=A|34=491|49=client1|52=20221125-14:24:04.000|56=gateway|98=0|108=30|1137=9|10=147|8=FIXT.1.1|9=78|35=A|34=492|49=client1|52=20221125-14:24:54.000|56=gateway|98=0|108=30|1137=9|10=153|8=FIXT.1.1|9=78|35=A|34=493|49=client1|52=20221125-14:25:04.000|56=gateway|98=0|108=30|1137=9|10=150|8=FIXT.1.1|9=78|35=A|34=494|49=client1|52=20221125-14:25:54.000|56=gateway|98=0|108=30|1137=9|10=156|8=FIXT.1.1|9=78|35=A|34=495|49=client1|52=20221125-14:26:04.000|56=gateway|98=0|108=30|1137=9|10=153|8=FIXT.1.1|9=78|35=A|34=496|49=client1|52=20221125-14:27:09.000|56=gateway|98=0|108=30|1137=9|10=160|8=FIXT.1.1|9=70|35=2|34=497|49=client1|52=20221125-14:27:09.000|56=gateway|7=420|16=0|10=014|8=FIXT.1.1|9=59|35=0|34=498|49=client1|52=20221125-14:27:39.000|56=gateway|10=055|8=FIXT.1.1|9=59|35=0|34=499|49=client1|52=20221125-14:28:09.000|56=gateway|10=054|8=FIXT.1.1|9=131|35=D|34=500|49=client1|52=20221125-14:28:20.000|56=gateway|1128=7|11=c1|38=100|40=1|54=1|59=0|60=20221125-14:28:02|207=US|20005=19|10=178|8=FIXT.1.1|9=68|35=1|34=501|49=client1|52=20221125-14:28:45.000|56=gateway|112=TEST|10=057|8=FIXT.1.1|9=78|35=A|34=502|49=client1|52=20221125-14:29:21.000|56=gateway|98=0|108=30|1137=9|10=144|8=FIXT.1.1|9=78|35=A|34=503|49=client1|52=20221125-14:30:09.000|56=gateway|98=0|108=30|1137=9|10=143|8=FIXT.1.1|9=78|35=A|34=504|49=client1|52=20221125-14:30:19.000|56=gateway|98=0|108=30|1137=9|10=145|8=FIXT.1.1|9=78|35=A|34=505|49=client1|52=20221125-14:31:09.000|56=gateway|98=0|108=30|1137=9|10=146|8=FIXT.1.1|9=78|35=A|34=506|49=client1|52=20221125-14:31:19.000|56=gateway|98=0|108=30|1137=9|10=148|8=FIXT.1.1|9=78|35=A|34=507|49=client1|52=20221125-14:32:09.000|56=gateway|98=0|108=30|1137=9|10=149|8=FIXT.1.1|9=78|35=A|34=508|49=client1|52=20221125-14:32:19.000|56=gateway|98=0|108=30|1137=9|10=151|8=FIXT.1.1|9=78|35=A|34=509|49=client1|52=20221125-14:33:09.000|56=gateway|98=0|108=30|1137=9|10=152|8=FIXT.1.1|9=78|35=A|34=510|49=client1|52=20221125-14:33:19.000|56=gateway|98=0|108=30|1137=9|10=145|8=FIXT.1.1|9=78|35=A|34=511|49=client1|52=20221125-14:34:09.000|56=gateway|98=0|108=30|1137=9|10=146|8=FIXT.1.1|9=78|35=A|34=512|49=client1|52=20221125-14:34:19.000|56=gateway|98=0|108=30|1137=9|10=148|8=FIXT.1.1|9=78|35=A|34=513|49=client1|52=20221125-14:35:09.000|56=gateway|98=0|108=30|1137=9|10=149|8=FIXT.1.1|9=78|35=A|34=514|49=client1|52=20221125-14:35:19.000|56=gateway|98=0|108=30|1137=9|10=151|8=FIXT.1.1|9=78|35=A|34=515|49=client1|52=20221125-14:36:09.000|56=gateway|98=0|108=30|1137=9|10=152|8=FIXT.1.1|9=78|35=A|34=516|49=client1|52=20221125-14:36:19.000|56=gateway|98=0|108=30|1137=9|10=154|8=FIXT.1.1|9=78|35=A|34=517|49=client1|52=20221125-14:37:09.000|56=gateway|98=0|108=30|1137=9|10=155|8=FIXT.1.1|9=78|35=A|34=518|49=client1|52=20221125-14:37:19.000|56=gateway|98=0|108=30|1137=9|10=157|8=FIXT.1.1|9=78|35=A|34=519|49=client1|52=20221125-14:38:09.000|56=gateway|98=0|108=30|1137=9|10=158|8=FIXT.1.1|9=78|35=A|34=520|49=client1|52=20221125-14:38:19.000|56=gateway|98=0|108=30|1137=9|10=151|8=FIXT.1.1|9=78|35=A|34=521|49=client1|52=20221125-14:39:09.000|56=gateway|98=0|108=30|1137=9|10=152|8=FIXT.1.1|9=78|35=A|34=522|49=client1|52=20221125-14:39:19.000|56=gateway|98=0|108=30|1137=9|10=154|8=FIXT.1.1|9=78|35=A|34=523|49=client1|52=20221125-14:40:09.000|56=gateway|98=0|108=30|1137=9|10=146|8=FIXT.1.1|9=78|35=A|34=524|49=client1|52=20221125-14:40:19.000|56=gateway|98=0|108=30|1137=9|10=148|8=FIXT.1.1|9=78|35=A|34=525|49=client1|52=20221125-14:41:09.000|56=gateway|98=0|108=30|1137=9|10=149|8=FIXT.1.1|9=78|35=A|34=526|49=client1|52=20221125-14:41:19.000|56=gateway|98=0|108=30|1137=9|10=151|8=FIXT.1.1|9=78|35=A|34=527|49=client1|52=20221125-14:42:09.000|56=gateway|98=0|108=30|1137=9|10=152|8=FIXT.1.1|9=78|35=A|34=528|49=client1|52=20221125-14:42:19.000|56=gateway|98=0|108=30|1137=9|10=154|8=FIXT.1.1|9=78|35=A|34=529|49=client1|52=20221125-14:43:09.000|56=gateway|98=0|108=30|1137=9|10=155|8=FIXT.1.1|9=78|35=A|34=530|49=client1|52=20221125-14:43:19.000|56=gateway|98=0|108=30|1137=9|10=148|8=FIXT.1.1|9=78|35=A|34=531|49=client1|52=20221125-14:45:47.000|56=gateway|98=0|108=30|1137=9|10=152|8=FIXT.1.1|9=70|35=2|34=532|49=client1|52=20221125-14:45:47.000|56=gateway|7=431|16=0|10=008|8=FIXT.1.1|9=139|35=D|34=533|49=client1|52=20221125-14:46:12.000|56=gateway|1128=7|11=c1|38=100|40=1|54=1|59=0|60=20221125-14:45:55|100=SOR|207=US|20005=19|10=139|8=FIXT.1.1|9=68|35=1|34=534|49=client1|52=20221125-14:46:23.000|56=gateway|112=TEST|10=059|8=FIXT.1.1|9=78|35=A|34=535|49=client1|52=20221125-14:46:59.000|56=gateway|98=0|108=30|1137=9|10=160|8=FIXT.1.1|9=78|35=A|34=536|49=client1|52=20221125-14:47:47.000|56=gateway|98=0|108=30|1137=9|10=159|8=FIXT.1.1|9=78|35=A|34=537|49=client1|52=20221125-14:47:57.000|56=gateway|98=0|108=30|1137=9|10=161|8=FIXT.1.1|9=138|35=D|34=538|49=client1|52=20221125-14:48:35.000|56=gateway|1128=7|11=1|38=100|40=1|54=1|59=0|60=20221125-14:48:19|100=SOR|207=US|20005=19|10=054|8=FIXT.1.1|9=78|35=A|34=539|49=client1|52=20221125-14:48:47.000|56=gateway|98=0|108=30|1137=9|10=163|8=FIXT.1.1|9=70|35=2|34=540|49=client1|52=20221125-14:48:47.000|56=gateway|7=437|16=0|10=016|8=FIXT.1.1|9=137|35=D|34=541|49=client1|52=20221125-14:49:13.000|56=gateway|1128=7|11=c1|38=1|40=1|54=1|59=0|60=20221125-14:48:44|100=SOR|207=US|20005=19|10=045|8=FIXT.1.1|9=68|35=1|34=542|49=client1|52=20221125-14:49:24.000|56=gateway|112=TEST|10=062|8=FIXT.1.1|9=78|35=A|34=543|49=client1|52=20221125-14:50:00.000|56=gateway|98=0|108=30|1137=9|10=140|8=FIXT.1.1|9=78|35=A|34=544|49=client1|52=20221125-14:50:47.000|56=gateway|98=0|108=30|1137=9|10=152|8=FIXT.1.1|9=78|35=A|34=545|49=client1|52=20221125-14:50:57.000|56=gateway|98=0|108=30|1137=9|10=154|8=FIXT.1.1|9=78|35=A|34=546|49=client1|52=20221125-14:51:47.000|56=gateway|98=0|108=30|1137=9|10=155|8=FIXT.1.1|9=78|35=A|34=547|49=client1|52=20221125-14:51:57.000|56=gateway|98=0|108=30|1137=9|10=157|8=FIXT.1.1|9=78|35=A|34=548|49=client1|52=20221125-14:52:47.000|56=gateway|98=0|108=30|1137=9|10=158|8=FIXT.1.1|9=78|35=A|34=549|49=client1|52=20221125-14:52:57.000|56=gateway|98=0|108=30|1137=9|10=160|8=FIXT.1.1|9=78|35=A|34=550|49=client1|52=20221125-14:53:47.000|56=gateway|98=0|108=30|1137=9|10=152|8=FIXT.1.1|9=78|35=A|34=551|49=client1|52=20221125-14:53:57.000|56=gateway|98=0|108=30|1137=9|10=154|8=FIXT.1.1|9=78|35=A|34=552|49=client1|52=20221125-14:54:47.000|56=gateway|98=0|108=30|1137=9|10=155|8=FIXT.1.1|9=78|35=A|34=553|49=client1|52=20221125-14:54:57.000|56=gateway|98=0|108=30|1137=9|10=157|8=FIXT.1.1|9=78|35=A|34=554|49=client1|52=20221125-14:55:47.000|56=gateway|98=0|108=30|1137=9|10=158|8=FIXT.1.1|9=78|35=A|34=555|49=client1|52=20221125-14:55:57.000|56=gateway|98=0|108=30|1137=9|10=160|8=FIXT.1.1|9=78|35=A|34=556|49=client1|52=20221125-14:56:47.000|56=gateway|98=0|108=30|1137=9|10=161|8=FIXT.1.1|9=78|35=A|34=557|49=client1|52=20221125-14:56:57.000|56=gateway|98=0|108=30|1137=9|10=163|8=FIXT.1.1|9=78|35=A|34=558|49=client1|52=20221125-14:57:47.000|56=gateway|98=0|108=30|1137=9|10=164|8=FIXT.1.1|9=78|35=A|34=559|49=client1|52=20221125-14:57:57.000|56=gateway|98=0|108=30|1137=9|10=166|8=FIXT.1.1|9=78|35=A|34=560|49=client1|52=20221125-14:58:40.000|56=gateway|98=0|108=30|1137=9|10=151|8=FIXT.1.1|9=70|35=2|34=561|49=client1|52=20221125-14:58:40.000|56=gateway|7=443|16=0|10=010|8=FIXT.1.1|9=137|35=D|34=562|49=client1|52=20221125-14:59:06.000|56=gateway|1128=7|11=c1|38=100|40=1|54=1|59=0|60=20221125-14:58:48|100=0|207=US|20005=19|10=212|8=FIXT.1.1|9=68|35=1|34=563|49=client1|52=20221125-14:59:16.000|56=gateway|112=TEST|10=067|8=FIXT.1.1|9=59|35=0|34=564|49=client1|52=20221125-14:59:46.000|56=gateway|10=052|8=FIXT.1.1|9=68|35=1|34=565|49=client1|52=20221125-15:00:03.000|56=gateway|112=TEST|10=052|8=FIXT.1.1|9=78|35=A|34=566|49=client1|52=20221125-15:00:39.000|56=gateway|98=0|108=30|1137=9|10=153|8=FIXT.1.1|9=78|35=A|34=567|49=client1|52=20221125-15:00:40.000|56=gateway|98=0|108=30|1137=9|10=146|8=FIXT.1.1|9=78|35=A|34=568|49=client1|52=20221125-15:00:50.000|56=gateway|98=0|108=30|1137=9|10=148|8=FIXT.1.1|9=78|35=A|34=569|49=client1|52=20221125-15:01:40.000|56=gateway|98=0|108=30|1137=9|10=149|8=FIXT.1.1|9=78|35=A|34=570|49=client1|52=20221125-15:01:50.000|56=gateway|98=0|108=30|1137=9|10=142|8=FIXT.1.1|9=78|35=A|34=571|49=client1|52=20221125-15:02:40.000|56=gateway|98=0|108=30|1137=9|10=143|8=FIXT.1.1|9=78|35=A|34=572|49=client1|52=20221125-15:02:50.000|56=gateway|98=0|108=30|1137=9|10=145|8=FIXT.1.1|9=78|35=A|34=573|49=client1|52=20221125-15:03:40.000|56=gateway|98=0|108=30|1137=9|10=146|8=FIXT.1.1|9=78|35=A|34=574|49=client1|52=20221125-15:03:50.000|56=gateway|98=0|108=30|1137=9|10=148|8=FIXT.1.1|9=78|35=A|34=575|49=client1|52=20221125-15:04:40.000|56=gateway|98=0|108=30|1137=9|10=149|8=FIXT.1.1|9=78|35=A|34=576|49=client1|52=20221125-15:04:50.000|56=gateway|98=0|108=30|1137=9|10=151|8=FIXT.1.1|9=78|35=A|34=577|49=client1|52=20221125-15:05:40.000|56=gateway|98=0|108=30|1137=9|10=152|8=FIXT.1.1|9=78|35=A|34=578|49=client1|52=20221125-15:05:50.000|56=gateway|98=0|108=30|1137=9|10=154|8=FIXT.1.1|9=78|35=A|34=579|49=client1|52=20221125-15:06:40.000|56=gateway|98=0|108=30|1137=9|10=155|8=FIXT.1.1|9=78|35=A|34=580|49=client1|52=20221125-15:06:50.000|56=gateway|98=0|108=30|1137=9|10=148|8=FIXT.1.1|9=78|35=A|34=581|49=client1|52=20221125-15:07:37.000|56=gateway|98=0|108=30|1137=9|10=155|8=FIXT.1.1|9=70|35=2|34=582|49=client1|52=20221125-15:07:37.000|56=gateway|7=452|16=0|10=014|8=FIXT.1.1|9=145|35=D|34=583|49=client1|52=20221125-15:08:00.000|56=gateway|1128=7|11=c1|38=100|40=1|54=1|55=LNUX|59=0|60=20221125-15:07:43|100=0|207=US|20005=19|10=176|8=FIXT.1.1|9=68|35=1|34=584|49=client1|52=20221125-15:08:13.000|56=gateway|112=TEST|10=062|8=FIXT.1.1|9=59|35=0|34=585|49=client1|52=20221125-15:08:43.000|56=gateway|10=047|8=FIXT.1.1|9=142|35=D|34=586|49=client1|52=20221125-15:08:58.000|56=gateway|1128=7|11=1|38=1|40=1|54=1|55=LNUX|59=0|60=20221125-15:08:45|100=0|207=US|20005=19|10=253|8=FIXT.1.1|9=59|35=0|34=587|49=client1|52=20221125-15:09:28.000|56=gateway|10=053|8=FIXT.1.1|9=68|35=1|34=588|49=client1|52=20221125-15:09:32.000|56=gateway|112=TEST|10=068|8=FIXT.1.1|9=78|35=A|34=589|49=client1|52=20221125-15:10:08.000|56=gateway|98=0|108=30|1137=9|10=155|8=FIXT.1.1|9=78|35=A|34=590|49=client1|52=20221125-15:10:37.000|56=gateway|98=0|108=30|1137=9|10=149|8=FIXT.1.1|9=78|35=A|34=591|49=client1|52=20221125-15:10:47.000|56=gateway|98=0|108=30|1137=9|10=151|8=FIXT.1.1|9=78|35=A|34=592|49=client1|52=20221125-15:11:37.000|56=gateway|98=0|108=30|1137=9|10=152|8=FIXT.1.1|9=70|35=2|34=593|49=client1|52=20221125-15:11:37.000|56=gateway|7=463|16=0|10=013|8=FIXT.1.1|9=59|35=0|34=594|49=client1|52=20221125-15:12:07.000|56=gateway|10=042|8=FIXT.1.1|9=59|35=0|34=595|49=client1|52=20221125-15:12:37.000|56=gateway|10=046|8=FIXT.1.1|9=145|35=D|34=596|49=client1|52=20221125-15:12:41.000|56=gateway|1128=7|11=c1|38=100|40=1|54=1|55=LNUX|59=0|60=20221125-15:12:24|100=0|207=US|20005=19|10=175|8=FIXT.1.1|9=59|35=0|34=597|49=client1|52=20221125-15:13:11.000|56=gateway|10=041|8=FIXT.1.1|9=59|35=0|34=598|49=client1|52=20221125-15:13:41.000|56=gateway|10=045|8=FIXT.1.1|9=68|35=1|34=599|49=client1|52=20221125-15:13:52.000|56=gateway|112=TEST|10=067|8=FIXT.1.1|9=68|35=0|34=600|49=client1|52=20221125-15:13:52.000|56=gateway|112=TEST|10=049|8=FIXT.1.1|9=120|35=F|34=601|49=client1|52=20221125-15:14:18.000|56=gateway|1128=7|11=c2|38=100|41=c1|54=1|60=20221125-15:13:53|20005=19|10=194|8=FIXT.1.1|9=68|35=1|34=602|49=client1|52=20221125-15:14:28.000|56=gateway|112=TEST|10=056|8=FIXT.1.1|9=78|35=A|34=603|49=client1|52=20221125-15:15:04.000|56=gateway|98=0|108=30|1137=9|10=143|8=FIXT.1.1|9=78|35=A|34=604|49=client1|52=20221125-15:15:37.000|56=gateway|98=0|108=30|1137=9|10=150|8=FIXT.1.1|9=78|35=A|34=605|49=client1|52=20221125-15:15:47.000|56=gateway|98=0|108=30|1137=9|10=152|8=FIXT.1.1|9=78|35=A|34=606|49=client1|52=20221125-15:16:37.000|56=gateway|98=0|108=30|1137=9|10=153|8=FIXT.1.1|9=78|35=A|34=607|49=client1|52=20221125-15:16:47.000|56=gateway|98=0|108=30|1137=9|10=155|8=FIXT.1.1|9=78|35=A|34=608|49=client1|52=20221125-15:17:37.000|56=gateway|98=0|108=30|1137=9|10=156|8=FIXT.1.1|9=78|35=A|34=609|49=client1|52=20221125-15:17:47.000|56=gateway|98=0|108=30|1137=9|10=158|8=FIXT.1.1|9=78|35=A|34=610|49=client1|52=20221125-15:18:37.000|56=gateway|98=0|108=30|1137=9|10=150|8=FIXT.1.1|9=70|35=2|34=611|49=client1|52=20221125-15:18:39.000|56=gateway|7=474|16=0|10=015|8=FIXT.1.1|9=59|35=0|34=612|49=client1|52=20221125-15:19:09.000|56=gateway|10=042|8=FIXT.1.1|9=78|35=A|34=613|49=client1|52=20221125-15:20:20.000|56=gateway|98=0|108=30|1137=9|10=138|8=FIXT.1.1|9=70|35=2|34=614|49=client1|52=20221125-15:20:20.000|56=gateway|7=480|16=0|10=254|8=FIXT.1.1|9=59|35=0|34=615|49=client1|52=20221125-15:20:50.000|56=gateway|10=033|8=FIXT.1.1|9=145|35=D|34=616|49=client1|52=20221125-15:21:14.000|56=gateway|1128=7|11=c3|38=100|40=1|54=1|55=LNUX|59=0|60=20221125-15:20:51|100=0|207=US|20005=19|10=169|8=FIXT.1.1|9=68|35=1|34=617|49=client1|52=20221125-15:21:26.000|56=gateway|112=TEST|10=058|8=FIXT.1.1|9=59|35=0|34=618|49=client1|52=20221125-15:21:56.000|56=gateway|10=043|8=FIXT.1.1|9=59|35=0|34=619|49=client1|52=20221125-15:22:26.000|56=gateway|10=042|8=FIXT.1.1|9=128|35=F|34=620|49=client1|52=20221125-15:22:43.000|56=gateway|1128=7|11=c4|38=100|41=c3|54=1|55=LNUX|60=20221125-15:22:16|20005=19|10=186|8=FIXT.1.1|9=68|35=1|34=621|49=client1|52=20221125-15:23:06.000|56=gateway|112=TEST|10=053|8=FIXT.1.1|9=78|35=A|34=622|49=client1|52=20221125-15:23:42.000|56=gateway|98=0|108=30|1137=9|10=145|8=FIXT.1.1|9=78|35=A|34=623|49=client1|52=20221125-15:24:20.000|56=gateway|98=0|108=30|1137=9|10=143|8=FIXT.1.1|9=70|35=2|34=624|49=client1|52=20221125-15:24:24.000|56=gateway|7=488|16=0|10=015|8=FIXT.1.1|9=59|35=0|34=625|49=client1|52=20221125-15:24:54.000|56=gateway|10=042|8=FIXT.1.1|9=59|35=0|34=626|49=client1|52=20221125-15:25:24.000|56=gateway|10=041|8=FIXT.1.1|9=118|35=G|34=627|49=client1|52=20221125-15:25:36.000|56=gateway|1128=7|11=c5|40=1|41=c3|54=1|60=20221125-15:24:49|20005=19|10=121|8=FIXT.1.1|9=68|35=1|34=628|49=client1|52=20221125-15:26:00.000|56=gateway|112=TEST|10=057|8=FIXT.1.1|9=78|35=A|34=629|49=client1|52=20221125-15:26:36.000|56=gateway|98=0|108=30|1137=9|10=158|8=FIXT.1.1|9=78|35=A|34=630|49=client1|52=20221125-15:27:20.000|56=gateway|98=0|108=30|1137=9|10=144|8=FIXT.1.1|9=78|35=A|34=631|49=client1|52=20221125-15:27:30.000|56=gateway|98=0|108=30|1137=9|10=146|8=FIXT.1.1|9=78|35=A|34=632|49=client1|52=20221125-15:28:20.000|56=gateway|98=0|108=30|1137=9|10=147|8=FIXT.1.1|9=70|35=2|34=633|49=client1|52=20221125-15:28:20.000|56=gateway|7=493|16=0|10=011|8=FIXT.1.1|9=59|35=0|34=634|49=client1|52=20221125-15:28:50.000|56=gateway|10=042|8=FIXT.1.1|9=59|35=0|34=635|49=client1|52=20221125-15:29:20.000|56=gateway|10=041|8=FIXT.1.1|9=59|35=0|34=636|49=client1|52=20221125-15:29:50.000|56=gateway|10=045|8=FIXT.1.1|9=118|35=G|34=637|49=client1|52=20221125-15:29:50.000|56=gateway|1128=7|11=c3|40=1|41=c1|54=1|60=20221125-15:29:21|20005=19|10=113|8=FIXT.1.1|9=59|35=0|34=638|49=client1|52=20221125-15:30:20.000|56=gateway|10=036|8=FIXT.1.1|9=59|35=0|34=639|49=client1|52=20221125-15:30:50.000|56=gateway|10=040|8=FIXT.1.1|9=59|35=0|34=640|49=client1|52=20221125-15:31:20.000|56=gateway|10=030|8=FIXT.1.1|9=59|35=0|34=641|49=client1|52=20221125-15:31:50.000|56=gateway|10=034|8=FIXT.1.1|9=59|35=0|34=642|49=client1|52=20221125-15:32:20.000|56=gateway|10=033|8=FIXT.1.1|9=59|35=0|34=643|49=client1|52=20221125-15:32:50.000|56=gateway|10=037|8=FIXT.1.1|9=118|35=G|34=644|49=client1|52=20221125-15:33:15.000|56=gateway|1128=7|11=c6|40=1|41=c3|54=1|60=20221125-15:32:51|20005=19|10=109|8=FIXT.1.1|9=68|35=1|34=645|49=client1|52=20221125-15:33:28.000|56=gateway|112=TEST|10=064|8=FIXT.1.1|9=78|35=A|34=646|49=client1|52=20221125-15:34:04.000|56=gateway|98=0|108=30|1137=9|10=151|8=FIXT.1.1|9=78|35=A|34=647|49=client1|52=20221125-15:34:20.000|56=gateway|98=0|108=30|1137=9|10=150|8=FIXT.1.1|9=70|35=2|34=648|49=client1|52=20221125-15:34:20.000|56=gateway|7=509|16=0|10=012|8=FIXT.1.1|9=70|35=2|34=649|49=client1|52=20221125-15:35:50.000|56=gateway|7=512|16=0|10=011|8=FIXT.1.1|9=78|35=A|34=650|49=client1|52=20221125-15:35:50.000|56=gateway|98=0|108=30|1137=9|10=148|8=FIXT.1.1|9=78|35=A|34=651|49=client1|52=20221125-15:36:15.000|56=gateway|98=0|108=30|1137=9|10=151|8=FIXT.1.1|9=70|35=2|34=652|49=client1|52=20221125-15:36:15.000|56=gateway|7=512|16=0|10=007|8=FIXT.1.1|9=59|35=0|34=653|49=client1|52=20221125-15:36:45.000|56=gateway|10=046|8=FIXT.1.1|9=126|35=G|34=654|49=client1|52=20221125-15:36:51.000|56=gateway|1128=7|11=c7|40=1|41=c3|54=1|55=LNUX|60=20221125-15:36:29|20005=19|10=105|8=FIXT.1.1|9=68|35=1|34=655|49=client1|52=20221125-15:37:21.000|56=gateway|112=TEST|10=062|8=FIXT.1.1|9=59|35=0|34=656|49=client1|52=20221125-15:37:51.000|56=gateway|10=047|8=FIXT.1.1|9=68|35=1|34=657|49=client1|52=20221125-15:38:16.000|56=gateway|112=TEST|10=069|8=FIXT.1.1|9=59|35=0|34=658|49=client1|52=20221125-15:38:48.000|56=gateway|10=056|8=FIXT.1.1|9=59|35=0|34=659|49=client1|52=20221125-15:39:18.000|56=gateway|10=055|8=FIXT.1.1|9=59|35=0|34=660|49=client1|52=20221125-15:39:48.000|56=gateway|10=050|8=FIXT.1.1|9=126|35=G|34=661|49=client1|52=20221125-15:39:56.000|56=gateway|1128=7|11=c6|40=1|41=c3|54=1|55=LNUX|60=20221125-15:39:03|20005=19|10=105|8=FIXT.1.1|9=68|35=1|34=662|49=client1|52=20221125-15:40:24.000|56=gateway|112=TEST|10=057|8=FIXT.1.1|9=78|35=A|34=663|49=client1|52=20221125-15:41:00.000|56=gateway|98=0|108=30|1137=9|10=144|8=FIXT.1.1|9=78|35=A|34=664|49=client1|52=20221125-15:41:15.000|56=gateway|98=0|108=30|1137=9|10=151|8=FIXT.1.1|9=78|35=A|34=665|49=client1|52=20221125-15:41:25.000|56=gateway|98=0|108=30|1137=9|10=153|8=FIXT.1.1|9=78|35=A|34=666|49=client1|52=20221125-15:42:15.000|56=gateway|98=0|108=30|1137=9|10=154|8=FIXT.1.1|9=78|35=A|34=667|49=client1|52=20221125-15:42:25.000|56=gateway|98=0|108=30|1137=9|10=156|8=FIXT.1.1|9=78|35=A|34=668|49=client1|52=20221125-15:43:15.000|56=gateway|98=0|108=30|1137=9|10=157|8=FIXT.1.1|9=78|35=A|34=669|49=client1|52=20221125-15:43:25.000|56=gateway|98=0|108=30|1137=9|10=159|8=FIXT.1.1|9=78|35=A|34=670|49=client1|52=20221125-15:44:15.000|56=gateway|98=0|108=30|1137=9|10=151|8=FIXT.1.1|9=78|35=A|34=671|49=client1|52=20221125-15:44:25.000|56=gateway|98=0|108=30|1137=9|10=153|8=FIXT.1.1|9=78|35=A|34=672|49=client1|52=20221125-15:45:15.000|56=gateway|98=0|108=30|1137=9|10=154|8=FIXT.1.1|9=78|35=A|34=673|49=client1|52=20221125-15:45:25.000|56=gateway|98=0|108=30|1137=9|10=156|8=FIXT.1.1|9=78|35=A|34=674|49=client1|52=20221125-15:46:15.000|56=gateway|98=0|108=30|1137=9|10=157|8=FIXT.1.1|9=78|35=A|34=675|49=client1|52=20221125-15:46:25.000|56=gateway|98=0|108=30|1137=9|10=159|8=FIXT.1.1|9=78|35=A|34=676|49=client1|52=20221125-15:47:15.000|56=gateway|98=0|108=30|1137=9|10=160|8=FIXT.1.1|9=78|35=A|34=677|49=client1|52=20221125-15:47:25.000|56=gateway|98=0|108=30|1137=9|10=162|8=FIXT.1.1|9=78|35=A|34=678|49=client1|52=20221125-15:48:00.000|56=gateway|98=0|108=30|1137=9|10=157|8=FIXT.1.1|9=70|35=2|34=679|49=client1|52=20221125-15:48:00.000|56=gateway|7=524|16=0|10=016|8=FIXT.1.1|9=59|35=0|34=680|49=client1|52=20221125-15:48:30.000|56=gateway|10=043|8=FIXT.1.1|9=133|35=G|34=681|49=client1|52=20221125-15:48:58.000|56=gateway|1128=7|11=c6|38=300|40=1|41=c3|54=1|55=LNUX|60=20221125-15:48:08|20005=19|10=172|8=FIXT.1.1|9=68|35=1|34=682|49=client1|52=20221125-15:49:06.000|56=gateway|112=TEST|10=068|8=FIXT.1.1|9=78|35=A|34=683|49=client1|52=20221125-15:49:42.000|56=gateway|98=0|108=30|1137=9|10=160|8=FIXT.1.1|9=78|35=A|34=684|49=client1|52=20221125-15:50:00.000|56=gateway|98=0|108=30|1137=9|10=147|8=FIXT.1.1|9=78|35=A|34=685|49=client1|52=20221125-15:50:10.000|56=gateway|98=0|108=30|1137=9|10=149|