8=FIXT.1.1|9=76|35=A|34=1|49=client1|52=20221202-07:44:40.000|56=gateway|98=0|108=30|1137=9|10=036|8=FIXT.1.1|9=155|35=D|34=2|49=client1|52=20221202-07:45:01.000|56=gateway|1128=7|11=c1|15=USD|38=100|40=1|54=1|55=IBM|59=0|60=20221202-07:44:46|100=6|204=0|207=US|20005=20|10=102|8=FIXT.1.1|9=66|35=1|34=3|49=client1|52=20221202-07:45:16.000|56=gateway|112=TEST|10=207|8=FIXT.1.1|9=109|35=j|34=4|49=client1|52=20221202-07:45:30.000|56=gateway|45=4|58=Unsupported Message Type|372=8|380=3|1137=9|10=088|8=FIXT.1.1|9=57|35=0|34=5|49=client1|52=20221202-07:46:00.000|56=gateway|10=184|8=FIXT.1.1|9=57|35=0|34=6|49=client1|52=20221202-07:46:30.000|56=gateway|10=188|8=FIXT.1.1|9=57|35=0|34=7|49=client1|52=20221202-07:47:00.000|56=gateway|10=187|8=FIXT.1.1|9=177|35=F|34=8|49=client1|52=20221202-07:47:12.000|56=gateway|1128=7|1=U901238|11=c2|15=USD|38=100|41=c1|54=1|55=AAPL|60=20221202-07:46:55|100=6|204=0|207=US|6207=U90123810|20005=20|10=060|8=FIXT.1.1|9=66|35=1|34=9|49=client1|52=20221202-07:47:36.000|56=gateway|112=TEST|10=217|8=FIXT.1.1|9=111|35=j|34=10|49=client1|52=20221202-07:47:47.000|56=gateway|45=10|58=Unsupported Message Type|372=8|380=3|1137=9|10=181|8=FIXT.1.1|9=58|35=0|34=11|49=client1|52=20221202-07:48:17.000|56=gateway|10=240|8=FIXT.1.1|9=58|35=0|34=12|49=client1|52=20221202-07:48:47.000|56=gateway|10=244|8=FIXT.1.1|9=58|35=0|34=13|49=client1|52=20221202-07:49:17.000|56=gateway|10=243|8=FIXT.1.1|9=58|35=0|34=14|49=client1|52=20221202-07:49:47.000|56=gateway|10=247|8=FIXT.1.1|9=58|35=0|34=15|49=client1|52=20221202-07:50:17.000|56=gateway|10=237|8=FIXT.1.1|9=58|35=0|34=16|49=client1|52=20221202-07:50:47.000|56=gateway|10=241|8=FIXT.1.1|9=58|35=0|34=17|49=client1|52=20221202-07:51:17.000|56=gateway|10=240|8=FIXT.1.1|9=58|35=0|34=18|49=client1|52=20221202-07:51:47.000|56=gateway|10=244|8=FIXT.1.1|9=58|35=0|34=19|49=client1|52=20221202-07:52:17.000|56=gateway|10=243|8=FIXT.1.1|9=58|35=0|34=20|49=client1|52=20221202-07:52:47.000|56=gateway|10=238|8=FIXT.1.1|9=58|35=0|34=21|49=client1|52=20221202-07:53:17.000|56=gateway|10=237|8=FIXT.1.1|9=58|35=0|34=22|49=client1|52=20221202-07:53:47.000|56=gateway|10=241|8=FIXT.1.1|9=58|35=0|34=23|49=client1|52=20221202-07:54:17.000|56=gateway|10=240|8=FIXT.1.1|9=58|35=0|34=24|49=client1|52=20221202-07:54:47.000|56=gateway|10=244|8=FIXT.1.1|9=58|35=0|34=25|49=client1|52=20221202-07:55:17.000|56=gateway|10=243|8=FIXT.1.1|9=58|35=0|34=26|49=client1|52=20221202-07:55:47.000|56=gateway|10=247|8=FIXT.1.1|9=58|35=0|34=27|49=client1|52=20221202-07:56:17.000|56=gateway|10=246|8=FIXT.1.1|9=58|35=0|34=28|49=client1|52=20221202-07:56:47.000|56=gateway|10=250|8=FIXT.1.1|9=58|35=0|34=29|49=client1|52=20221202-07:57:17.000|56=gateway|10=249|8=FIXT.1.1|9=58|35=0|34=30|49=client1|52=20221202-07:57:47.000|56=gateway|10=244|8=FIXT.1.1|9=58|35=0|34=31|49=client1|52=20221202-07:58:17.000|56=gateway|10=243|8=FIXT.1.1|9=58|35=0|34=32|49=client1|52=20221202-07:58:47.000|56=gateway|10=247|8=FIXT.1.1|9=58|35=0|34=33|49=client1|52=20221202-07:59:17.000|56=gateway|10=246|8=FIXT.1.1|9=58|35=0|34=34|49=client1|52=20221202-07:59:47.000|56=gateway|10=250|8=FIXT.1.1|9=58|35=0|34=35|49=client1|52=20221202-08:00:17.000|56=gateway|10=235|8=FIXT.1.1|9=58|35=0|34=36|49=client1|52=20221202-08:00:47.000|56=gateway|10=239|8=FIXT.1.1|9=58|35=0|34=37|49=client1|52=20221202-08:01:17.000|56=gateway|10=238|8=FIXT.1.1|9=58|35=0|34=38|49=client1|52=20221202-08:01:47.000|56=gateway|10=242|8=FIXT.1.1|9=58|35=0|34=39|49=client1|52=20221202-08:02:17.000|56=gateway|10=241|8=FIXT.1.1|9=58|35=0|34=40|49=client1|52=20221202-08:02:47.000|56=gateway|10=236|8=FIXT.1.1|9=58|35=0|34=41|49=client1|52=20221202-08:03:17.000|56=gateway|10=235|8=FIXT.1.1|9=58|35=0|34=42|49=client1|52=20221202-08:03:47.000|56=gateway|10=239|8=FIXT.1.1|9=58|35=0|34=43|49=client1|52=20221202-08:04:17.000|56=gateway|10=238|8=FIXT.1.1|9=58|35=0|34=44|49=client1|52=20221202-08:04:47.000|56=gateway|10=242|8=FIXT.1.1|9=58|35=0|34=45|49=client1|52=20221202-08:05:17.000|56=gateway|10=241|8=FIXT.1.1|9=58|35=0|34=46|49=client1|52=20221202-08:05:47.000|56=gateway|10=245|8=FIXT.1.1|9=58|35=0|34=47|49=client1|52=20221202-08:06:17.000|56=gateway|10=244|8=FIXT.1.1|9=58|35=0|34=48|49=client1|52=20221202-08:06:47.000|56=gateway|10=248|8=FIXT.1.1|9=58|35=0|34=49|49=client1|52=20221202-08:07:17.000|56=gateway|10=247|8=FIXT.1.1|9=58|35=0|34=50|49=client1|52=20221202-08:07:47.000|56=gateway|10=242|8=FIXT.1.1|9=58|35=0|34=51|49=client1|52=20221202-08:08:17.000|56=gateway|10=241|8=FIXT.1.1|9=58|35=0|34=52|49=client1|52=20221202-08:08:47.000|56=gateway|10=245|8=FIXT.1.1|9=58|35=0|34=53|49=client1|52=20221202-08:09:17.000|56=gateway|10=244|8=FIXT.1.1|9=58|35=0|34=54|49=client1|52=20221202-08:09:47.000|56=gateway|10=248|8=FIXT.1.1|9=58|35=0|34=55|49=client1|52=20221202-08:10:17.000|56=gateway|10=238|8=FIXT.1.1|9=58|35=0|34=56|49=client1|52=20221202-08:10:47.000|56=gateway|10=242|8=FIXT.1.1|9=58|35=0|34=57|49=client1|52=20221202-08:11:17.000|56=gateway|10=241|8=FIXT.1.1|9=58|35=0|34=58|49=client1|52=20221202-08:11:47.000|56=gateway|10=245|8=FIXT.1.1|9=58|35=0|34=59|49=client1|52=20221202-08:12:17.000|56=gateway|10=244|8=FIXT.1.1|9=58|35=0|34=60|49=client1|52=20221202-08:12:47.000|56=gateway|10=239|8=FIXT.1.1|9=58|35=0|34=61|49=client1|52=20221202-08:13:17.000|56=gateway|10=238|8=FIXT.1.1|9=58|35=0|34=62|49=client1|52=20221202-08:13:47.000|56=gateway|10=242|8=FIXT.1.1|9=58|35=0|34=63|49=client1|52=20221202-08:14:17.000|56=gateway|10=241|8=FIXT.1.1|9=58|35=0|34=64|49=client1|52=20221202-08:14:47.000|56=gateway|10=245|8=FIXT.1.1|9=58|35=0|34=65|49=client1|52=20221202-08:15:17.000|56=gateway|10=244|8=FIXT.1.1|9=58|35=0|34=66|49=client1|52=20221202-08:15:47.000|56=gateway|10=248|8=FIXT.1.1|9=58|35=0|34=67|49=client1|52=20221202-08:16:17.000|56=gateway|10=247|8=FIXT.1.1|9=58|35=0|34=68|49=client1|52=20221202-08:16:47.000|56=gateway|10=251|8=FIXT.1.1|9=58|35=0|34=69|49=client1|52=20221202-08:17:17.000|56=gateway|10=250|8=FIXT.1.1|9=58|35=0|34=70|49=client1|52=20221202-08:17:47.000|56=gateway|10=245|8=FIXT.1.1|9=58|35=0|34=71|49=client1|52=20221202-08:18:17.000|56=gateway|10=244|8=FIXT.1.1|9=58|35=0|34=72|49=client1|52=20221202-08:18:47.000|56=gateway|10=248|8=FIXT.1.1|9=58|35=0|34=73|49=client1|52=20221202-08:19:17.000|56=gateway|10=247|8=FIXT.1.1|9=58|35=0|34=74|49=client1|52=20221202-08:19:47.000|56=gateway|10=251|8=FIXT.1.1|9=58|35=0|34=75|49=client1|52=20221202-08:20:17.000|56=gateway|10=241|8=FIXT.1.1|9=58|35=0|34=76|49=client1|52=20221202-08:20:47.000|56=gateway|10=245|8=FIXT.1.1|9=58|35=0|34=77|49=client1|52=20221202-08:21:17.000|56=gateway|10=244|8=FIXT.1.1|9=58|35=0|34=78|49=client1|52=20221202-08:21:47.000|56=gateway|10=248|8=FIXT.1.1|9=58|35=0|34=79|49=client1|52=20221202-08:22:17.000|56=gateway|10=247|8=FIXT.1.1|9=58|35=0|34=80|49=client1|52=20221202-08:22:47.000|56=gateway|10=242|8=FIXT.1.1|9=58|35=0|34=81|49=client1|52=20221202-08:23:17.000|56=gateway|10=241|8=FIXT.1.1|9=58|35=0|34=82|49=client1|52=20221202-08:23:47.000|56=gateway|10=245|8=FIXT.1.1|9=58|35=0|34=83|49=client1|52=20221202-08:24:17.000|56=gateway|10=244|8=FIXT.1.1|9=58|35=0|34=84|49=client1|52=20221202-08:24:47.000|56=gateway|10=248|8=FIXT.1.1|9=58|35=0|34=85|49=client1|52=20221202-08:25:17.000|56=gateway|10=247|8=FIXT.1.1|9=58|35=0|34=86|49=client1|52=20221202-08:25:47.000|56=gateway|10=251|8=FIXT.1.1|9=58|35=0|34=87|49=client1|52=20221202-08:26:17.000|56=gateway|10=250|8=FIXT.1.1|9=58|35=0|34=88|49=client1|52=20221202-08:26:47.000|56=gateway|10=254|8=FIXT.1.1|9=58|35=0|34=89|49=client1|52=20221202-08:27:17.000|56=gateway|10=253|8=FIXT.1.1|9=58|35=0|34=90|49=client1|52=20221202-08:27:47.000|56=gateway|10=248|8=FIXT.1.1|9=58|35=0|34=91|49=client1|52=20221202-08:28:17.000|56=gateway|10=247|8=FIXT.1.1|9=58|35=0|34=92|49=client1|52=20221202-08:28:47.000|56=gateway|10=251|8=FIXT.1.1|9=58|35=0|34=93|49=client1|52=20221202-08:29:17.000|56=gateway|10=250|8=FIXT.1.1|9=58|35=0|34=94|49=client1|52=20221202-08:29:47.000|56=gateway|10=254|8=FIXT.1.1|9=58|35=0|34=95|49=client1|52=20221202-08:30:17.000|56=gateway|10=244|8=FIXT.1.1|9=58|35=0|34=96|49=client1|52=20221202-08:30:47.000|56=gateway|10=248|8=FIXT.1.1|9=58|35=0|34=97|49=client1|52=20221202-08:31:17.000|56=gateway|10=247|8=FIXT.1.1|9=58|35=0|34=98|49=client1|52=20221202-08:31:47.000|56=gateway|10=251|8=FIXT.1.1|9=58|35=0|34=99|49=client1|52=20221202-08:32:17.000|56=gateway|10=250|8=FIXT.1.1|9=59|35=0|34=100|49=client1|52=20221202-08:32:47.000|56=gateway|10=029|8=FIXT.1.1|9=59|35=0|34=101|49=client1|52=20221202-08:33:17.000|56=gateway|10=028|8=FIXT.1.1|9=59|35=0|34=102|49=client1|52=20221202-08:33:47.000|56=gateway|10=032|8=FIXT.1.1|9=59|35=0|34=103|49=client1|52=20221202-08:34:17.000|56=gateway|10=031|8=FIXT.1.1|9=59|35=0|34=104|49=client1|52=20221202-08:34:47.000|56=gateway|10=035|8=FIXT.1.1|9=59|35=0|34=105|49=client1|52=20221202-08:35:17.000|56=gateway|10=034|8=FIXT.1.1|9=59|35=0|34=106|49=client1|52=20221202-08:35:47.000|56=gateway|10=038|8=FIXT.1.1|9=59|35=0|34=107|49=client1|52=20221202-08:36:17.000|56=gateway|10=037|8=FIXT.1.1|9=59|35=0|34=108|49=client1|52=20221202-08:36:47.000|56=gateway|10=041|8=FIXT.1.1|9=59|35=0|34=109|49=client1|52=20221202-08:37:17.000|56=gateway|10=040|8=FIXT.1.1|9=59|35=0|34=110|49=client1|52=20221202-08:37:47.000|56=gateway|10=035|8=FIXT.1.1|9=59|35=0|34=111|49=client1|52=20221202-08:38:17.000|56=gateway|10=034|8=FIXT.1.1|9=59|35=0|34=112|49=client1|52=20221202-08:38:47.000|56=gateway|10=038|8=FIXT.1.1|9=59|35=0|34=113|49=client1|52=20221202-08:39:17.000|56=gateway|10=037|8=FIXT.1.1|9=59|35=0|34=114|49=client1|52=20221202-08:39:47.000|56=gateway|10=041|8=FIXT.1.1|9=59|35=0|34=115|49=client1|52=20221202-08:40:17.000|56=gateway|10=031|8=FIXT.1.1|9=59|35=0|34=116|49=client1|52=20221202-08:40:47.000|56=gateway|10=035|8=FIXT.1.1|9=59|35=0|34=117|49=client1|52=20221202-08:41:17.000|56=gateway|10=034|8=FIXT.1.1|9=59|35=0|34=118|49=client1|52=20221202-08:41:47.000|56=gateway|10=038|8=FIXT.1.1|9=59|35=0|34=119|49=client1|52=20221202-08:42:17.000|56=gateway|10=037|8=FIXT.1.1|9=59|35=0|34=120|49=client1|52=20221202-08:42:47.000|56=gateway|10=032|8=FIXT.1.1|9=59|35=0|34=121|49=client1|52=20221202-08:43:17.000|56=gateway|10=031|8=FIXT.1.1|9=59|35=0|34=122|49=client1|52=20221202-08:43:47.000|56=gateway|10=035|8=FIXT.1.1|9=59|35=0|34=123|49=client1|52=20221202-08:44:17.000|56=gateway|10=034|8=FIXT.1.1|9=59|35=0|34=124|49=client1|52=20221202-08:44:47.000|56=gateway|10=038|8=FIXT.1.1|9=59|35=0|34=125|49=client1|52=20221202-08:45:17.000|56=gateway|10=037|8=FIXT.1.1|9=59|35=0|34=126|49=client1|52=20221202-08:45:47.000|56=gateway|10=041|8=FIXT.1.1|9=59|35=0|34=127|49=client1|52=20221202-08:46:17.000|56=gateway|10=040|8=FIXT.1.1|9=59|35=0|34=128|49=client1|52=20221202-08:46:47.000|56=gateway|10=044|8=FIXT.1.1|9=59|35=0|34=129|49=client1|52=20221202-08:47:17.000|56=gateway|10=043|8=FIXT.1.1|9=59|35=0|34=130|49=client1|52=20221202-08:47:47.000|56=gateway|10=038|8=FIXT.1.1|9=59|35=0|34=131|49=client1|52=20221202-08:48:17.000|56=gateway|10=037|8=FIXT.1.1|9=78|35=A|34=132|49=client1|52=20221202-15:19:01.000|56=gateway|98=0|108=30|1137=9|10=137|8=FIXT.1.1|9=157|35=D|34=133|49=client1|52=20221202-15:19:31.000|56=gateway|1128=7|11=c1|15=USD|38=100|40=1|54=1|55=IBM|59=0|60=20221202-15:19:16|100=6|204=0|207=US|20005=20|10=206|8=FIXT.1.1|9=68|35=1|34=134|49=client1|52=20221202-15:19:37.000|56=gateway|112=TEST|10=057|8=FIXT.1.1|9=59|35=0|34=135|49=client1|52=20221202-15:20:07.000|56=gateway|10=028|8=FIXT.1.1|9=179|35=F|34=136|49=client1|52=20221202-15:46:45.000|56=gateway|1128=7|1=U901238|11=c1|15=USD|38=100|41=c0|54=1|55=AAPL|60=20221202-15:46:25|100=6|204=0|207=US|6207=U90123810|20005=20|10=158|8=FIXT.1.1|9=179|35=F|34=137|49=client1|52=20221202-15:47:04.000|56=gateway|1128=7|1=U901238|11=c1|15=USD|38=100|41=c1|54=1|55=AAPL|60=20221202-15:46:48|100=6|204=0|207=US|6207=U90123810|20005=20|10=161|8=FIXT.1.1|9=78|35=A|34=138|49=client1|52=20221202-15:48:18.000|56=gateway|98=0|108=30|1137=9|10=153|8=FIXT.1.1|9=70|35=2|34=139|49=client1|52=20221202-15:48:18.000|56=gateway|7=135|16=0|10=010|8=FIXT.1.1|9=179|35=F|34=140|49=client1|52=20221202-15:48:34.000|56=gateway|1128=7|1=U901238|11=c1|15=USD|38=100|41=c1|54=1|55=AAPL|60=20221202-15:48:18|100=6|204=0|207=US|6207=U90123810|20005=20|10=158|8=FIXT.1.1|9=59|35=0|34=141|49=client1|52=20221202-15:49:04.000|56=gateway|10=033|8=FIXT.1.1|9=59|35=0|34=142|49=client1|52=20221202-15:49:34.000|56=gateway|10=037|8=FIXT.1.1|9=59|35=0|34=143|49=client1|52=20221202-15:50:04.000|56=gateway|10=027|8=FIXT.1.1|9=59|35=0|34=144|49=client1|52=20221202-15:50:34.000|56=gateway|10=031|8=FIXT.1.1|9=59|35=0|34=145|49=client1|52=20221202-15:51:04.000|56=gateway|10=030|8=FIXT.1.1|9=59|35=0|34=146|49=client1|52=20221202-15:51:34.000|56=gateway|10=034|8=FIXT.1.1|9=59|35=0|34=147|49=client1|52=20221202-15:52:04.000|56=gateway|10=033|8=FIXT.1.1|9=59|35=0|34=148|49=client1|52=20221202-15:52:34.000|56=gateway|10=037|8=FIXT.1.1|9=59|35=0|34=149|49=client1|52=20221202-15:53:04.000|56=gateway|10=036|8=FIXT.1.1|9=59|35=0|34=150|49=client1|52=20221202-15:53:34.000|56=gateway|10=031|8=FIXT.1.1|9=179|35=F|34=151|49=client1|52=20221202-15:54:00.000|56=gateway|1128=7|1=U901238|11=c1|15=USD|38=100|41=c1|54=1|55=AAPL|60=20221202-15:53:48|100=6|204=0|207=US|6207=U90123810|20005=20|10=149|8=FIXT.1.1|9=68|35=1|34=152|49=client1|52=20221202-15:54:24.000|56=gateway|112=TEST|10=052|8=FIXT.1.1|9=59|35=0|34=153|49=client1|52=20221202-15:54:54.000|56=gateway|10=037|8=FIXT.1.1|9=59|35=0|34=154|49=client1|52=20221202-15:55:24.000|56=gateway|10=036|8=FIXT.1.1|9=59|35=0|34=155|49=client1|52=20221202-15:55:54.000|56=gateway|10=040|8=FIXT.1.1|9=59|35=0|34=156|49=client1|52=20221202-15:56:24.000|56=gateway|10=039|8=FIXT.1.1|9=59|35=0|34=157|49=client1|52=20221202-15:56:54.000|56=gateway|10=043|8=FIXT.1.1|9=59|35=0|34=158|49=client1|52=20221202-15:57:24.000|56=gateway|10=042|8=FIXT.1.1|9=59|35=0|34=159|49=client1|52=20221202-15:57:54.000|56=gateway|10=046|8=FIXT.1.1|9=59|35=0|34=160|49=client1|52=20221202-15:58:24.000|56=gateway|10=036|8=FIXT.1.1|9=59|35=0|34=161|49=client1|52=20221202-15:58:54.000|56=gateway|10=040|8=FIXT.1.1|9=59|35=0|34=162|49=client1|52=20221202-15:59:24.000|56=gateway|10=039|8=FIXT.1.1|9=59|35=0|34=163|49=client1|52=20221202-15:59:54.000|56=gateway|10=043|8=FIXT.1.1|9=59|35=0|34=164|49=client1|52=20221202-16:00:24.000|56=gateway|10=028|8=FIXT.1.1|9=59|35=0|34=165|49=client1|52=20221202-16:00:54.000|56=gateway|10=032|8=FIXT.1.1|9=59|35=0|34=166|49=client1|52=20221202-16:01:24.000|56=gateway|10=031|8=FIXT.1.1|9=59|35=0|34=167|49=client1|52=20221202-16:01:54.000|56=gateway|10=035|8=FIXT.1.1|9=59|35=0|34=168|49=client1|52=20221202-16:02:24.000|56=gateway|10=034|8=FIXT.1.1|9=59|35=0|34=169|49=client1|52=20221202-16:02:54.000|56=gateway|10=038|8=FIXT.1.1|9=59|35=0|34=170|49=client1|52=20221202-16:03:24.000|56=gateway|10=028|8=FIXT.1.1|9=59|35=0|34=171|49=client1|52=20221202-16:03:54.000|56=gateway|10=032|8=FIXT.1.1|9=59|35=0|34=172|49=client1|52=20221202-16:04:24.000|56=gateway|10=031|8=FIXT.1.1|9=59|35=0|34=173|49=client1|52=20221202-16:04:54.000|56=gateway|10=035|8=FIXT.1.1|9=59|35=0|34=174|49=client1|52=20221202-16:05:24.000|56=gateway|10=034|8=FIXT.1.1|9=59|35=0|34=175|49=client1|52=20221202-16:05:54.000|56=gateway|10=038|8=FIXT.1.1|9=59|35=0|34=176|49=client1|52=20221202-16:06:24.000|56=gateway|10=037|8=FIXT.1.1|9=59|35=0|34=177|49=client1|52=20221202-16:06:54.000|56=gateway|10=041|8=FIXT.1.1|9=59|35=0|34=178|49=client1|52=20221202-16:07:24.000|56=gateway|10=040|8=FIXT.1.1|9=59|35=0|34=179|49=client1|52=20221202-16:07:54.000|56=gateway|10=044|8=FIXT.1.1|9=59|35=0|34=180|49=client1|52=20221202-16:08:24.000|56=gateway|10=034|8=FIXT.1.1|9=179|35=F|34=181|49=client1|52=20221202-16:08:32.000|56=gateway|1128=7|1=U901238|11=c2|15=USD|38=100|41=c1|54=1|55=AAPL|60=20221202-16:08:15|100=6|204=0|207=US|6207=U90123810|20005=20|10=153|8=FIXT.1.1|9=68|35=1|34=182|49=client1|52=20221202-16:08:49.000|56=gateway|112=TEST|10=062|8=FIXT.1.1|9=78|35=A|34=183|49=client1|52=20221202-16:09:25.000|56=gateway|98=0|108=30|1137=9|10=149|8=FIXT.1.1|9=78|35=A|34=184|49=client1|52=20221202-16:14:54.000|56=gateway|98=0|108=30|1137=9|10=148|8=FIXT.1.1|9=70|35=2|34=185|49=client1|52=20221202-16:14:54.000|56=gateway|7=179|16=0|10=013|8=FIXT.1.1|9=59|35=0|34=186|49=client1|52=20221202-16:15:24.000|56=gateway|10=038|8=FIXT.1.1|9=59|35=0|34=187|49=client1|52=20221202-16:15:54.000|56=gateway|10=042|8=FIXT.1.1|9=59|35=0|34=188|49=client1|52=20221202-16:16:24.000|56=gateway|10=041|8=FIXT.1.1|9=158|35=D|34=189|49=client1|52=20221202-16:16:37.000|56=gateway|1128=7|11=c10|15=USD|38=100|40=1|54=1|55=IBM|59=0|60=20221202-16:16:18|100=6|204=0|207=US|20005=20|10=014|8=FIXT.1.1|9=68|35=1|34=190|49=client1|52=20221202-16:17:00.000|56=gateway|112=TEST|10=048|8=FIXT.1.1|9=59|35=0|34=191|49=client1|52=20221202-16:17:30.000|56=gateway|10=033|8=FIXT.1.1|9=59|35=0|34=192|49=client1|52=20221202-16:18:00.000|56=gateway|10=032|8=FIXT.1.1|9=59|35=0|34=193|49=client1|52=20221202-16:18:30.000|56=gateway|10=036|8=FIXT.1.1|9=59|35=0|34=194|49=client1|52=20221202-16:19:00.000|56=gateway|10=035|8=FIXT.1.1|9=165|35=D|34=195|49=client1|52=20221202-16:19:25.000|56=gateway|1128=7|11=c11|15=USD|38=100|40=2|44=100|54=1|55=IBM|59=0|60=20221202-16:18:56|100=6|204=0|207=US|20005=20|10=070|8=FIXT.1.1|9=59|35=0|34=196|49=client1|52=20221202-16:20:19.000|56=gateway|10=039|8=FIXT.1.1|9=68|35=0|34=197|49=client1|52=20221202-16:20:20.000|56=gateway|112=TEST|10=050|8=FIXT.1.1|9=164|35=D|34=198|49=client1|52=20221202-16:20:42.000|56=gateway|1128=7|11=c12|15=USD|38=100|40=3|54=1|55=IBM|59=0|60=20221202-16:20:24|99=12|100=6|204=0|207=US|20005=20|10=017|8=FIXT.1.1|9=59|35=0|34=199|49=client1|52=20221202-16:21:12.000|56=gateway|10=036|8=FIXT.1.1|9=78|35=A|34=200|49=client1|52=20221202-16:38:51.000|56=gateway|98=0|108=30|1137=9|10=140|8=FIXT.1.1|9=70|35=2|34=201|49=client1|52=20221202-16:38:51.000|56=gateway|7=196|16=0|10=004|8=FIXT.1.1|9=164|35=D|34=202|49=client1|52=20221202-16:39:19.000|56=gateway|1128=7|11=c12|15=USD|38=100|40=3|54=1|55=IBM|59=0|60=20221202-16:38:59|99=12|100=6|204=0|207=US|20005=20|10=034|8=FIXT.1.1|9=59|35=0|34=203|49=client1|52=20221202-16:39:49.000|56=gateway|10=041|8=FIXT.1.1|9=59|35=0|34=204|49=client1|52=20221202-16:40:19.000|56=gateway|10=031|8=FIXT.1.1|9=59|35=0|34=205|49=client1|52=20221202-16:40:49.000|56=gateway|10=035|8=FIXT.1.1|9=59|35=0|34=206|49=client1|52=20221202-16:41:19.000|56=gateway|10=034|8=FIXT.1.1|9=59|35=0|34=207|49=client1|52=20221202-16:41:49.000|56=gateway|10=038|8=FIXT.1.1|9=170|35=D|34=208|49=client1|52=20221202-16:42:11.000|56=gateway|1128=7|11=c13|15=USD|38=100|40=4|44=12|54=1|55=IBM|59=0|60=20221202-16:41:53|99=12|100=6|204=0|207=US|20005=20|10=022|8=FIXT.1.1|9=59|35=0|34=209|49=client1|52=20221202-16:42:41.000|56=gateway|10=033|8=FIXT.1.1|9=78|35=A|34=210|49=client1|52=20221202-18:05:38.000|56=gateway|98=0|108=30|1137=9|10=142|8=FIXT.1.1|9=70|35=2|34=211|49=client1|52=20221202-18:05:38.000|56=gateway|7=206|16=0|10=254|8=FIXT.1.1|9=59|35=0|34=212|49=client1|52=20221202-18:06:08.000|56=gateway|10=032|8=FIXT.1.1|9=181|35=F|34=213|49=client1|52=20221202-18:06:30.000|56=gateway|1128=7|1=U901238|11=c13|15=USD|38=100|41=c10|54=1|55=AAPL|60=20221202-18:06:04|100=6|204=0|207=US|6207=U90123810|20005=20|10=236|8=FIXT.1.1|9=59|35=0|34=214|49=client1|52=20221202-18:07:00.000|56=gateway|10=027|8=FIXT.1.1|9=59|35=0|34=215|49=client1|52=20221202-18:07:30.000|56=gateway|10=031|8=FIXT.1.1|9=59|35=0|34=216|49=client1|52=20221202-18:08:00.000|56=gateway|10=030|8=FIXT.1.1|9=181|35=F|34=217|49=client1|52=20221202-18:08:04.000|56=gateway|1128=7|1=U901238|11=c14|15=USD|38=100|41=c11|54=1|55=AAPL|60=20221202-18:07:39|100=6|204=0|207=US|6207=U90123810|20005=20|10=254|8=FIXT.1.1|9=59|35=0|34=218|49=client1|52=20221202-18:08:34.000|56=gateway|10=039|8=FIXT.1.1|9=68|35=1|34=219|49=client1|52=20221202-18:09:10.000|56=gateway|112=TEST|10=054|8=FIXT.1.1|9=68|35=0|34=220|49=client1|52=20221202-18:09:10.000|56=gateway|112=TEST|10=045|8=FIXT.1.1|9=59|35=0|34=221|49=client1|52=20221202-18:09:40.000|56=gateway|10=031|8=FIXT.1.1|9=181|35=F|34=222|49=client1|52=20221202-18:10:01.000|56=gateway|1128=7|1=U901238|11=c15|15=USD|38=100|41=c12|54=1|55=AAPL|60=20221202-18:09:42|100=6|204=0|207=US|6207=U90123810|20005=20|10=238|8=FIXT.1.1|9=59|35=0|34=223|49=client1|52=20221202-18:10:31.000|56=gateway|10=025|8=FIXT.1.1|9=59|35=0|34=224|49=client1|52=20221202-18:11:01.000|56=gateway|10=024|8=FIXT.1.1|9=157|35=D|34=225|49=client1|52=20221202-18:11:27.000|56=gateway|1128=7|11=d1|15=USD|38=100|40=1|54=1|55=IBM|59=0|60=20221202-18:11:08|100=6|204=0|207=US|20005=20|10=205|8=FIXT.1.1|9=59|35=0|34=226|49=client1|52=20221202-18:11:57.000|56=gateway|10=037|8=FIXT.1.1|9=59|35=0|34=227|49=client1|52=20221202-18:12:27.000|56=gateway|10=036|8=FIXT.1.1|9=184|35=G|34=228|49=client1|52=20221202-18:12:31.000|56=gateway|1128=7|1=U901238|11=d2|15=USD|38=200|40=2|41=d1|54=1|55=AAPL|60=20221202-18:12:06|100=6|204=0|207=US|6207=U90123810|20005=20|10=104|8=FIXT.1.1|9=59|35=0|34=229|49=client1|52=20221202-18:13:01.000|56=gateway|10=031|8=FIXT.1.1|9=59|35=0|34=230|49=client1|52=20221202-18:13:31.000|56=gateway|10=026|8=FIXT.1.1|9=59|35=0|34=231|49=client1|52=20221202-18:14:01.000|56=gateway|10=025|8=FIXT.1.1|9=59|35=0|34=232|49=client1|52=20221202-18:14:31.000|56=gateway|10=029|8=FIXT.1.1|9=59|35=0|34=233|49=client1|52=20221202-18:15:01.000|56=gateway|10=028|8=FIXT.1.1|9=59|35=0|34=234|49=client1|52=20221202-18:15:31.000|56=gateway|10=032|8=FIXT.1.1|9=184|35=G|34=235|49=client1|52=20221202-18:15:38.000|56=gateway|1128=7|1=U901238|11=00|15=USD|38=200|40=2|41=d3|54=1|55=AAPL|60=20221202-18:15:13|100=6|204=0|207=US|6207=U90123810|20005=20|10=061|8=FIXT.1.1|9=68|35=1|34=236|49=client1|52=20221202-18:15:56.000|56=gateway|112=TEST|10=060|8=FIXT.1.1|9=78|35=A|34=237|49=client1|52=20221202-18:16:32.000|56=gateway|98=0|108=30|1137=9|10=147|8=FIXT.1.1|9=78|35=A|34=238|49=client1|52=20221202-18:17:10.000|56=gateway|98=0|108=30|1137=9|10=145|8=FIXT.1.1|9=78|35=A|34=239|49=client1|52=20221202-18:17:20.000|56=gateway|98=0|108=30|1137=9|10=147|8=FIXT.1.1|9=78|35=A|34=240|49=client1|52=20221202-18:18:10.000|56=gateway|98=0|108=30|1137=9|10=139|8=FIXT.1.1|9=70|35=2|34=241|49=client1|52=20221202-18:18:10.000|56=gateway|7=231|16=0|10=249|8=FIXT.1.1|9=59|35=0|34=242|49=client1|52=20221202-18:18:40.000|56=gateway|10=034|8=FIXT.1.1|9=59|35=0|34=243|49=client1|52=20221202-18:19:10.000|56=gateway|10=033|8=FIXT.1.1|9=59|35=0|34=244|49=client1|52=20221202-18:19:40.000|56=gateway|10=037|8=FIXT.1.1|9=191|35=G|34=245|49=client1|52=20221202-18:19:53.000|56=gateway|1128=7|1=U901238|11=d2|15=USD|38=120|40=2|41=d1|44=150|54=1|55=AAPL|60=20221202-18:19:15|100=6|204=0|207=US|6207=U90123810|20005=20|10=180|8=FIXT.1.1|9=68|35=1|34=246|49=client1|52=20221202-18:20:16.000|56=gateway|112=TEST|10=053|8=FIXT.1.1|9=59|35=0|34=247|49=client1|52=20221202-18:20:47.000|56=gateway|10=039|8=FIXT.1.1|9=59|35=0|34=248|49=client1|52=20221202-18:21:17.000|56=gateway|10=038|8=FIXT.1.1|9=59|35=0|34=249|49=client1|52=20221202-18:21:47.000|56=gateway|10=042|8=FIXT.1.1|9=59|35=0|34=250|49=client1|52=20221202-18:22:17.000|56=gateway|10=032|8=FIXT.1.1|9=59|35=0|34=251|49=client1|52=20221202-18:22:47.000|56=gateway|10=036|8=FIXT.1.1|9=59|35=0|34=252|49=client1|52=20221202-18:23:17.000|56=gateway|10=035|8=FIXT.1.1|9=59|35=0|34=253|49=client1|52=20221202-18:23:47.000|56=gateway|10=039|8=FIXT.1.1|9=59|35=0|34=254|49=client1|52=20221202-18:24:17.000|56=gateway|10=038|8=FIXT.1.1|9=59|35=0|34=255|49=client1|52=20221202-18:24:47.000|56=gateway|10=042|8=FIXT.1.1|9=59|35=0|34=256|49=client1|52=20221202-18:25:17.000|56=gateway|10=041|8=FIXT.1.1|9=59|35=0|34=257|49=client1|52=20221202-18:25:47.000|56=gateway|10=045|8=FIXT.1.1|9=59|35=0|34=258|49=client1|52=20221202-18:26:17.000|56=gateway|10=044|8=FIXT.1.1|9=59|35=0|34=259|49=client1|52=20221202-18:26:47.000|56=gateway|10=048|8=FIXT.1.1|9=59|35=0|34=260|49=client1|52=20221202-18:27:17.000|56=gateway|10=038|8=FIXT.1.1|9=59|35=0|34=261|49=client1|52=20221202-18:27:47.000|56=gateway|10=042|8=FIXT.1.1|9=59|35=0|34=262|49=client1|52=20221202-18:28:17.000|56=gateway|10=041|8=FIXT.1.1|9=59|35=0|34=263|49=client1|52=20221202-18:28:47.000|56=gateway|10=045|8=FIXT.1.1|9=59|35=0|34=264|49=client1|52=20221202-18:29:17.000|56=gateway|10=044|8=FIXT.1.1|9=59|35=0|34=265|49=client1|52=20221202-18:29:47.000|56=gateway|10=048|8=FIXT.1.1|9=59|35=0|34=266|49=client1|52=20221202-18:30:17.000|56=gateway|10=038|8=FIXT.1.1|9=59|35=0|34=267|49=client1|52=20221202-18:30:47.000|56=gateway|10=042|8=FIXT.1.1|9=59|35=0|34=268|49=client1|52=20221202-18:31:17.000|56=gateway|10=041|8=FIXT.1.1|9=59|35=0|34=269|49=client1|52=20221202-18:31:47.000|56=gateway|10=045|8=FIXT.1.1|9=59|35=0|34=270|49=client1|52=20221202-18:32:17.000|56=gateway|10=035|8=FIXT.1.1|9=59|35=0|34=271|49=client1|52=20221202-18:32:47.000|56=gateway|10=039|8=FIXT.1.1|9=59|35=0|34=272|49=client1|52=20221202-18:33:17.000|56=gateway|10=038|8=FIXT.1.1|9=59|35=0|34=273|49=client1|52=20221202-18:33:47.000|56=gateway|10=042|8=FIXT.1.1|9=59|35=0|34=274|49=client1|52=20221202-18:34:17.000|56=gateway|10=041|8=FIXT.1.1|9=59|35=0|34=275|49=client1|52=20221202-18:34:47.000|56=gateway|10=045|8=FIXT.1.1|9=59|35=0|34=276|49=client1|52=20221202-18:35:17.000|56=gateway|10=044|8=FIXT.1.1|9=59|35=0|34=277|49=client1|52=20221202-18:35:47.000|56=gateway|10=048|8=FIXT.1.1|9=59|35=0|34=278|49=client1|52=20221202-18:36:17.000|56=gateway|10=047|8=FIXT.1.1|9=59|35=0|34=279|49=client1|52=20221202-18:36:47.000|56=gateway|10=051|8=FIXT.1.1|9=59|35=0|34=280|49=client1|52=20221202-18:37:17.000|56=gateway|10=041|8=FIXT.1.1|9=59|35=0|34=281|49=client1|52=20221202-18:37:47.000|56=gateway|10=045|8=FIXT.1.1|9=59|35=0|34=282|49=client1|52=20221202-18:38:17.000|56=gateway|10=044|8=FIXT.1.1|9=59|35=0|34=283|49=client1|52=20221202-18:38:47.000|56=gateway|10=048|8=FIXT.1.1|9=59|35=0|34=284|49=client1|52=20221202-18:39:17.000|56=gateway|10=047|8=FIXT.1.1|9=59|35=0|34=285|49=client1|52=20221202-18:39:47.000|56=gateway|10=051|8=FIXT.1.1|9=59|35=0|34=286|49=client1|52=20221202-18:40:17.000|56=gateway|10=041|8=FIXT.1.1|9=59|35=0|34=287|49=client1|52=20221202-18:40:47.000|56=gateway|10=045|8=FIXT.1.1|9=59|35=0|34=288|49=client1|52=20221202-18:41:17.000|56=gateway|10=044|8=FIXT.1.1|9=59|35=0|34=289|49=client1|52=20221202-18:41:47.000|56=gateway|10=048|8=FIXT.1.1|9=59|35=0|34=290|49=client1|52=20221202-18:42:17.000|56=gateway|10=038|8=FIXT.1.1|9=59|35=0|34=291|49=client1|52=20221202-18:42:47.000|56=gateway|10=042|8=FIXT.1.1|9=59|35=0|34=292|49=client1|52=20221202-18:43:17.000|56=gateway|10=041|8=FIXT.1.1|9=59|35=0|34=293|49=client1|52=20221202-18:43:47.000|56=gateway|10=045|8=FIXT.1.1|9=59|35=0|34=294|49=client1|52=20221202-18:44:17.000|56=gateway|10=044|8=FIXT.1.1|9=59|35=0|34=295|49=client1|52=20221202-18:44:47.000|56=gateway|10=048|8=FIXT.1.1|9=59|35=0|34=296|49=client1|52=20221202-18:45:17.000|56=gateway|10=047|8=FIXT.1.1|9=59|35=0|34=297|49=client1|52=20221202-18:45:47.000|56=gateway|10=051|8=FIXT.1.1|9=59|35=0|34=298|49=client1|52=20221202-18:46:17.000|56=gateway|10=050|8=FIXT.1.1|9=59|35=0|34=299|49=client1|52=20221202-18:46:47.000|56=gateway|10=054|8=FIXT.1.1|9=59|35=0|34=300|49=client1|52=20221202-18:47:17.000|56=gateway|10=035|8=FIXT.1.1|9=59|35=0|34=301|49=client1|52=20221202-18:47:47.000|56=gateway|10=039|8=FIXT.1.1|9=59|35=0|34=302|49=client1|52=20221202-18:48:17.000|56=gateway|10=038|8=FIXT.1.1|9=59|35=0|34=303|49=client1|52=20221202-18:48:47.000|56=gateway|10=042|8=FIXT.1.1|9=59|35=0|34=304|49=client1|52=20221202-18:49:17.000|56=gateway|10=041|8=FIXT.1.1|9=59|35=0|34=305|49=client1|52=20221202-18:49:47.000|56=gateway|10=045|8=FIXT.1.1|9=59|35=0|34=306|49=client1|52=20221202-18:50:17.000|56=gateway|10=035|8=FIXT.1.1|9=59|35=0|34=307|49=client1|52=20221202-18:50:47.000|56=gateway|10=039|8=FIXT.1.1|9=59|35=0|34=308|49=client1|52=20221202-18:51:17.000|56=gateway|10=038|8=FIXT.1.1|9=59|35=0|34=309|49=client1|52=20221202-18:51:47.000|56=gateway|10=042|8=FIXT.1.1|9=59|35=0|34=310|49=client1|52=20221202-18:52:17.000|56=gateway|10=032|8=FIXT.1.1|9=59|35=0|34=311|49=client1|52=20221202-18:52:47.000|56=gateway|10=036|8=FIXT.1.1|9=59|35=0|34=312|49=client1|52=20221202-18:53:17.000|56=gateway|10=035|8=FIXT.1.1|9=59|35=0|34=313|49=client1|52=20221202-18:53:47.000|56=gateway|10=039|8=FIXT.1.1|9=59|35=0|34=314|49=client1|52=20221202-18:54:17.000|56=gateway|10=038|8=FIXT.1.1|9=59|35=0|34=315|49=client1|52=20221202-18:54:47.000|56=gateway|10=042|8=FIXT.1.1|9=59|35=0|34=316|49=client1|52=20221202-18:55:17.000|56=gateway|10=041|8=FIXT.1.1|9=59|35=0|34=317|49=client1|52=20221202-18:55:47.000|56=gateway|10=045|8=FIXT.1.1|9=59|35=0|34=318|49=client1|52=20221202-18:56:17.000|56=gateway|10=044|8=FIXT.1.1|9=59|35=0|34=319|49=client1|52=20221202-18:56:47.000|56=gateway|10=048|8=FIXT.1.1|9=59|35=0|34=320|49=client1|52=20221202-18:57:17.000|56=gateway|10=038|8=FIXT.1.1|9=59|35=0|34=321|49=client1|52=20221202-18:57:47.000|56=gateway|10=042|8=FIXT.1.1|9=59|35=0|34=322|49=client1|52=20221202-18:58:17.000|56=gateway|10=041|8=FIXT.1.1|9=59|35=0|34=323|49=client1|52=20221202-18:58:47.000|56=gateway|10=045|8=FIXT.1.1|9=59|35=0|34=324|49=client1|52=20221202-18:59:17.000|56=gateway|10=044|8=FIXT.1.1|9=59|35=0|34=325|49=client1|52=20221202-18:59:47.000|56=gateway|10=048|8=FIXT.1.1|9=59|35=0|34=326|49=client1|52=20221202-19:00:17.000|56=gateway|10=033|8=FIXT.1.1|9=59|35=0|34=327|49=client1|52=20221202-19:00:47.000|56=gateway|10=037|8=FIXT.1.1|9=59|35=0|34=328|49=client1|52=20221202-19:01:17.000|56=gateway|10=036|8=FIXT.1.1|9=59|35=0|34=329|49=client1|52=20221202-19:01:47.000|56=gateway|10=040|8=FIXT.1.1|9=59|35=0|34=330|49=client1|52=20221202-19:02:17.000|56=gateway|10=030|8=FIXT.1.1|9=59|35=0|34=331|49=client1|52=20221202-19:02:47.000|56=gateway|10=034|8=FIXT.1.1|9=59|35=0|34=332|49=client1|52=20221202-19:03:17.000|56=gateway|10=033|8=FIXT.1.1|9=59|35=0|34=333|49=client1|52=20221202-19:03:47.000|56=gateway|10=037|8=FIXT.1.1|9=59|35=0|34=334|49=client1|52=20221202-19:04:17.000|56=gateway|10=036|8=FIXT.1.1|9=59|35=0|34=335|49=client1|52=20221202-19:04:47.000|56=gateway|10=040|8=FIXT.1.1|9=59|35=0|34=336|49=client1|52=20221202-19:05:17.000|56=gateway|10=039|8=FIXT.1.1|9=59|35=0|34=337|49=client1|52=20221202-19:05:47.000|56=gateway|10=043|8=FIXT.1.1|9=59|35=0|34=338|49=client1|52=20221202-19:06:17.000|56=gateway|10=042|8=FIXT.1.1|9=59|35=0|34=339|49=client1|52=20221202-19:06:47.000|56=gateway|10=046|8=FIXT.1.1|9=59|35=0|34=340|49=client1|52=20221202-19:07:17.000|56=gateway|10=036|8=FIXT.1.1|9=59|35=0|34=341|49=client1|52=20221202-19:07:47.000|56=gateway|10=040|8=FIXT.1.1|9=78|35=A|34=342|49=client1|52=20221202-19:17:09.000|56=gateway|98=0|108=30|1137=9|10=150|8=FIXT.1.1|9=154|35=D|34=343|49=client1|52=20221202-19:17:34.000|56=gateway|1128=7|11=a1|38=100|40=1|54=1|55=IBM|59=0|60=20221202-19:17:19|100=SMART|204=0|207=US|20005=20|10=151|8=FIXT.1.1|9=59|35=0|34=344|49=client1|52=20221202-19:18:04.000|56=gateway|10=038|8=FIXT.1.1|9=59|35=0|34=345|49=client1|52=20221202-19:18:34.000|56=gateway|10=042|8=FIXT.1.1|9=59|35=0|34=346|49=client1|52=20221202-19:19:04.000|56=gateway|10=041|8=FIXT.1.1|9=59|35=0|34=347|49=client1|52=20221202-19:19:34.000|56=gateway|10=045|8=FIXT.1.1|9=59|35=0|34=348|49=client1|52=20221202-19:20:04.000|56=gateway|10=035|8=FIXT.1.1|9=59|35=0|34=349|49=client1|52=20221202-19:20:34.000|56=gateway|10=039|8=FIXT.1.1|9=59|35=0|34=350|49=client1|52=20221202-19:21:04.000|56=gateway|10=029|8=FIXT.1.1|9=59|35=0|34=351|49=client1|52=20221202-19:21:34.000|56=gateway|10=033|8=FIXT.1.1|9=59|35=0|34=352|49=client1|52=20221202-19:22:04.000|56=gateway|10=032|8=FIXT.1.1|9=59|35=0|34=353|49=client1|52=20221202-19:22:34.000|56=gateway|10=036|8=FIXT.1.1|9=59|35=0|34=354|49=client1|52=20221202-19:23:04.000|56=gateway|10=035|8=FIXT.1.1|9=59|35=0|34=355|49=client1|52=20221202-19:23:34.000|56=gateway|10=039|8=FIXT.1.1|9=59|35=0|34=356|49=client1|52=20221202-19:24:04.000|56=gateway|10=038|8=FIXT.1.1|9=59|35=0|34=357|49=client1|52=20221202-19:24:34.000|56=gateway|10=042|8=FIXT.1.1|9=59|35=0|34=358|49=client1|52=20221202-19:25:04.000|56=gateway|10=041|8=FIXT.1.1|9=59|35=0|34=359|49=client1|52=20221202-19:25:34.000|56=gateway|10=045|8=FIXT.1.1|9=59|35=0|34=360|49=client1|52=20221202-19:26:04.000|56=gateway|10=035|8=FIXT.1.1|9=59|35=0|34=361|49=client1|52=20221202-19:26:34.000|56=gateway|10=039|8=FIXT.1.1|9=78|35=A|34=362|49=client1|52=20221202-19:26:49.000|56=gateway|98=0|108=30|1137=9|10=156|8=FIXT.1.1|9=155|35=D|34=363|49=client1|52=20221202-19:27:14.000|56=gateway|1128=7|11=a1|38=100|40=1|54=1|55=IBM|59=0|60=20221202-19:26:56|100=SMART|204=0|207=ISE|20005=20|10=211|8=FIXT.1.1|9=59|35=0|34=364|49=client1|52=20221202-19:27:44.000|56=gateway|10=044|8=FIXT.1.1|9=59|35=0|34=365|49=client1|52=20221202-19:28:14.000|56=gateway|10=043|8=FIXT.1.1|9=59|35=0|34=366|49=client1|52=20221202-19:28:44.000|56=gateway|10=047|8=FIXT.1.1|9=179|35=F|34=367|49=client1|52=20221202-19:28:58.000|56=gateway|1128=7|1=U901238|11=a2|15=USD|38=100|41=a1|54=1|55=AAPL|60=20221202-19:28:41|100=6|204=0|207=US|6207=U90123810|20005=20|10=172|8=FIXT.1.1|9=59|35=0|34=368|49=client1|52=20221202-19:29:28.000|56=gateway|10=052|8=FIXT.1.1|9=59|35=0|34=369|49=client1|52=20221202-19:29:58.000|56=gateway|10=056|8=FIXT.1.1|9=59|35=0|34=370|49=client1|52=20221202-19:30:28.000|56=gateway|10=037|8=FIXT.1.1|9=59|35=0|34=371|49=client1|52=20221202-19:30:58.000|56=gateway|10=041|8=FIXT.1.1|9=59|35=0|34=372|49=client1|52=20221202-19:31:28.000|56=gateway|10=040|8=FIXT.1.1|9=59|35=0|34=373|49=client1|52=20221202-19:31:58.000|56=gateway|10=044|8=FIXT.1.1|9=59|35=0|34=374|49=client1|52=20221202-19:32:28.000|56=gateway|10=043|